:100000000C9446000C9465000C9465000C946500FB
:100010000C9465000C9465000C9465000C946500CC
:100020000C9465000C94A8000C9465000C94650079
:100030000C9467000C9465000C9465000C946500AA
:100040000C9465000C9465000C9465000C9465009C
:100050000C9465000C9465000C9465000C9465008C
:100060000C9465000C9465000C9465000C9465007C
:100070000C9465000C9465000C9465000C9465006C
:100080000C9465000C9465000C94650011241FBE4F
:10009000CFEFD0E1DEBFCDBF12E0A0E0B1E0E0E500
:1000A000FCE100E00BBF02C007900D92A239B1073E
:1000B000D9F712E0A2E9B2E001C01D92A13CB1075C
:1000C000E1F70E9452040C94260E0C9400001F923B
:1000D0000F920FB60F920BB60F9211248F939F932E
:1000E000EF93FF93E3E2F0E0808190E38927808340
:1000F000FF91EF919F918F910F900BBE0F900FBECC
:100100000F901F901895C89904C081E08093C00299
:1001100005C0CC9903C082E08093C002CA9907C091
:1001200081E090E0909393028093920208958091F1
:10013000920290919302892B51F081E090E090938C
:100140009502809394021092930210929202089565
:100150001F920F920FB60F920BB60F9211242F938E
:100160003F934F935F936F937F938F939F93AF933F
:10017000BF93EF93FF930E948300FF91EF91BF9194
:10018000AF919F918F917F916F915F914F913F912F
:100190002F910F900BBE0F900FBE0F901F901895D0
:1001A0002F923F924F925F926F927F928F929F9287
:1001B000AF92BF92CF92DF92EF92FF920F931F9375
:1001C000DF93CF9300D0CDB7DEB7609196027091E8
:1001D0009702809198029091990228EE33E040E0D6
:1001E00050E00E94E40C122F032FF42EE52E622F14
:1001F000732F842F952F2AE030E040E050E00E94DA
:10020000E40C6A83612F702F8F2D9E2D2AE030E041
:1002100040E050E00E94E40CCA01B9012AE030E05D
:1002200040E050E00E94E40C6983882499240F2E5A
:10023000FEE96F2EF2E07F2EF02D0F2EFDEA2F2E1D
:10024000F2E03F2EF02D0F2EFFEAAF2EF2E0BF2E90
:10025000F02D0F2EF3E04F2EF02D5524689455F815
:1002600064010894C11CD11C7601E1E0F0E0EC0FC0
:10027000FD1FE80DF91D8081805DF3018083809171
:10028000C00290E08C159D05C1F480919C02909174
:100290009D02892B21F084E0F10180833EC0809192
:1002A000940290919502892B21F082E0F1018083E4
:1002B00034C081E0F101808330C080E2F1018083AD
:1002C0002CC0C8016FE070E00E94D10CF501E80F6E
:1002D000F91F808190E08E219F21892B11F4852DBB
:1002E00001C0842DF90180830F5F1F4F21503040E2
:1002F0002615370531F7EEEAF2E0108280E090E053
:10030000B4010E9413058EE992E00E944E05F2E0CE
:10031000CF16D10449F04601A3CF0091BE0210913F
:10032000BF022CEA32E0CDCF0F900F90CF91DF913A
:100330001F910F91FF90EF90DF90CF90BF90AF9003
:100340009F908F907F906F905F904F903F902F90F5
:100350000895DF93CF93CDB7DEB7A2970FB6F89489
:10036000DEBF0FBECDBFDE011196E0E0F1E081E11E
:1003700001900D928150E1F7DE015296E1E1F1E04A
:1003800081E101900D928150E1F7CE0101960E942A
:100390004E0580E090E061E070E00E941305CE0120
:1003A00042960E944E05A2960FB6F894DEBF0FBE8D
:1003B000CDBFCF91DF910895AF92BF92CF92DF92E0
:1003C000EF92FF920F931F93DF93CF93CDB7DEB7DA
:1003D0006C970FB6F894DEBF0FBECDBFDE0111964D
:1003E000E2E2F1E08EE001900D928150E1F7DE0152
:1003F0001F96E0E3F1E08EE001900D928150E1F76D
:1004000084E090E00E94D70D372F482F592F862F78
:10041000932FA42FB52F5C016D014091960250914E
:1004200097026091980270919902A416B506C606CB
:10043000D70634F484E090E00E94DD0D85E08D87DE
:100440006091960270919702809198029091990222
:1004500028EE33E040E050E00E94E40C122F032F1E
:10046000F42EE52EC601B50128EE33E040E050E061
:100470000E94E40CD22EC32EB42EA52E612F702F15
:100480008F2D9E2D2AE030E040E050E00E94E40CE9
:10049000605D6B87612F702F8F2D9E2D2AE030E0DD
:1004A00040E050E00E94E40C122F032FF42EE52EC2
:1004B000622F732F842F952F2AE030E040E050E028
:1004C0000E94E40C605D6A87612F702F8F2D9E2D36
:1004D0002AE030E040E050E00E94E40CCA01B9019B
:1004E0002AE030E040E050E00E94E40C605D698763
:1004F0006D2D7C2D8B2D9A2D2AE030E040E050E0D0
:100500000E94E40C605D6B8F6D2D7C2D8B2D9A2DE0
:100510002AE030E040E050E00E94E40C122F032F6C
:10052000F42EE52E622F732F842F952F2AE030E0D2
:1005300040E050E00E94E40C605D6A8F612F702FF4
:100540008F2D9E2D2AE030E040E050E00E94E40C28
:10055000CA01B9012AE030E040E050E00E94E40C1A
:10056000605D698F8091BE029091BF0201966FE03D
:1005700070E00E94D10C9093BF028093BE020E9453
:10058000D00081E090E060E070E00E941305CE01B1
:1005900001960E944E0581E090E061E070E00E94CB
:1005A0001305CE010F960E944E056C960FB6F89477
:1005B000DEBF0FBECDBFCF91DF911F910F91FF9096
:1005C000EF90DF90CF90BF90AF900895CF92DF92E1
:1005D000EF92FF920F931F93CF93DF93CFEAD2E076
:1005E000EE24FF24CC24DD24C3940DEB12E0809193
:1005F000940290919502892BE1F48091BE02909132
:10060000BF02FE01E80FF91FE0818091C002E817E8
:1006100021F4C6012C2D892F08C0C7012E2D892F4A
:10062000E33019F4C6012C2D892F20939C0280936E
:100630009D0280919C0290919D02892B09F07BC0C4
:100640002091BE023091BF022115310521F4F8013D
:10065000808190E00BC0C90101976FE070E00E94BB
:10066000D10CFE01E80FF91F808190E0FE01E20F3E
:10067000F31F1082892B91F48FE090E00E94E60531
:100680009C012F5F3F4F2430310544F48091BE021E
:100690009091BF02FE01E80FF91F20838091BE02F6
:1006A0009091BF0201966FE070E00E94D10C909390
:1006B000BF028093BE020E94D0008091940290916C
:1006C0009502009749F0019664E070E00E94D10C19
:1006D000909395028093940280919A0290919B024C
:1006E0000E946D0580919A0290919B028739910535
:1006F0002CF0019790939B0280939A0220919A028A
:1007000030919B02442737FD4095542F80919602EB
:1007100090919702A0919802B0919902820F931F35
:10072000A41FB51F8093960290939702A0939802FE
:10073000B09399025CCFDF91CF911F910F91FF9001
:10074000EF90DF90CF90089582E390E00E946D05D6
:100750008091940290919502892BB1F310929502A9
:100760001092940208958CB59DB50E94CC0D81E045
:100770008093C00288E592E090939B0280939A0256
:10078000EFEAF2E08EEB92E01192E817F907E1F759
:100790001092AE02109295021092940210929D0255
:1007A00010929C021092BF021092BE02109296020A
:1007B00010929702109298021092990281E090E0B4
:1007C00060E070E00E94B50408950F931F93CF93EB
:1007D000DF930AE511E0C0E0D0E02196CE01B80138
:1007E0000E942805085F1F4FC530D105B1F78CE086
:1007F00090E060E070E00E94B50481E090E060E08D
:1008000070E00E94B504DF91CF911F910F91089580
:10081000F894E2E2F0E0808180638083E3E2F0E03C
:1008200080818F7E8083808180628083EFE4F0E02E
:1008300080818C7F8083EEE4F0E08081886080831B
:1008400080818F7E80838081856080831BBC83E173
:100850008ABDA7E5B0E08C918F7E8C93E5E4F0E053
:1008600080818F78808380818860808380818560AB
:10087000808380818D7F80838EE383BD8C918068AF
:100880008C93EAE3F0E080818E7F808380818B7F90
:10089000808380818F7E80838081806480830E94BA
:1008A000D00408950E94080478940E94E5030E94F1
:1008B000A9010E94A4030E94B3030E94E6020E94C1
:1008C000DC01F7CFE5E3F0E080818460808380E99C
:1008D00091E00197F1F783B390819B7F908382959C
:1008E0008F7090E008959FE094BB826085BB0E946A
:1008F00062040895EF92FF920F931F937C010E9470
:1009000073048C0102951295107F1027007F102729
:10091000C7010E947304082B192B802F912F1F9160
:100920000F91FF90EF9008952FEF24BB8295929541
:10093000907F9827807F9827682B65BB0E94620470
:10094000089580E090E00E947A048823D4F308950B
:100950000F931F930E947A04182F092F0E94A1045D
:10096000812F902F1F910F910895EF92FF920F9377
:100970001F938C017B019595879595958795959506
:100980008795959587950E949404C801B7010E94A8
:1009900094040E94A1041F910F91FF90EF9008957D
:1009A0000F931F9383E090E060E070E00E94940456
:1009B00000E21EE4C8010197F1F783E090E060E0F7
:1009C00070E00E949404C8010197F1F783E090E081
:1009D00060E070E00E949404C8010197F1F782E0A2
:1009E00090E060E070E00E949404C8010197F1F784
:1009F0008CE290E060E070E00E94B50488E090E056
:100A000060E070E00E94B50481E090E060E070E09A
:100A10000E94B50486E090E060E070E00E94B504BA
:100A20001F910F910895AC01862F972F009711F019
:100A300081E090E0FC01EC57FE4F80819A01280F85
:100A4000311DC901806860E070E00E94B50408951E
:100A50000F931F93CF93DF938B0187709070880F54
:100A6000991F880F991F880F991F806460E070E0BC
:100A70000E94B504C0E0D0E0F801EC0FFD1F8081BA
:100A800090E061E070E00E94B5042196C830D10585
:100A900099F7DF91CF911F910F9108950F931F93B5
:100AA000CF93DF938C01A82FB12FFD01019000207F
:100AB000E9F73197EF01CA1BDB0B51F0F801819187
:100AC0008F0190E061E070E00E94B5042197B1F7DA
:100AD000DF91CF911F910F910895AF92BF92CF9266
:100AE000DF92EF92FF920F931F938C0164E670E008
:100AF0000E94D10C862F972FDC011A161B068CF44E
:100B0000BD01E8EEF3E040E951E09F01CA01019721
:100B1000F1F721503040D1F761507040161617069A
:100B2000A4F38CE99FEFA89FB001A99F700DB89F17
:100B3000700D1124600F711F882777FD8095982F05
:100B40000E942A0A5B016C0120E030E04AE755E48C
:100B50000E94F4077B018C0120E030E040E85FE375
:100B60000E94FA0988231CF461E070E023C0C801E8
:100B7000B70120E03FEF4FE757E40E949A091816AB
:100B8000ACF4C601B50120E030E040E251E40E943F
:100B9000F4070E941E06CB01672B79F020E931E0B3
:100BA000F9013197F1F70197D9F707C0C801B701EB
:100BB0000E941E06CB010197F1F71F910F91FF9044
:100BC000EF90DF90CF90BF90AF900895AF92BF921B
:100BD000CF92DF92EF92FF920F931F937C010E94BE
:100BE000C70DAA2797FDA095BA2FBC01CD010E9481
:100BF0002A0A20E03EEF4FEF56E40E94EE085B0128
:100C00006C010027F7FC0095102FC801B7010E9466
:100C10002A0A9B01AC01C601B5010E94F4070E949B
:100C2000880A9B01AC01862F932F1F910F91FF9093
:100C3000EF90DF90CF90BF90AF900895EF92FF922A
:100C40000F931F937B018C0120E030E040E05FE4D4
:100C50000E94CA0988238CF0C801B70120E030E067
:100C600040E05FE40E9496070E94880A9B01AC0165
:100C7000205030404040504806C0C801B7010E9493
:100C8000880A9B01AC01B901CA011F910F91FF9025
:100C9000EF900895A0E0B0E0E0E5F6E00C94350DAB
:100CA000DC012B01FA019C91923008F439C1EB016F
:100CB0008881823008F433C1943069F4843009F0BB
:100CC0002FC111969C9111978981981709F428C119
:100CD000A6E8B1E025C1843009F421C18230A9F42D
:100CE000923009F01DC19A01AD0188E0EA01099036
:100CF000AE01E90109929E018150C1F7E2018981AB
:100D000011969C918923818308C1923009F407C10F
:100D100012962D903C901397EB018A819B8114963B
:100D2000AD90BD90CD90DC901797EC80FD800E814A
:100D30001F819101281B390BB90137FF04C06627B9
:100D40007727621B730B603271050CF061C01216BD
:100D500013066CF537014801062E04C0969487945B
:100D6000779467940A94D2F721E030E040E050E0B5
:100D700004C0220F331F441F551F6A95D2F721501C
:100D80003040404050402E213F2140235123211527
:100D900031054105510521F021E030E040E050E00F
:100DA00079018A01E628F728082919293CC0232B54
:100DB000D1F1260E371E35014601062E04C0969449
:100DC0008794779467940A94D2F721E030E040E06A
:100DD00050E004C0220F331F441F551F6A95D2F7FD
:100DE00021503040404050402A213B214C215D2180
:100DF000211531054105510521F021E030E040E0A9
:100E000050E059016A01A628B728C828D9280BC084
:100E1000821593052CF01C01AA24BB24650103C094
:100E2000EE24FF24870111969C91D20111968C919A
:100E3000981709F445C0992339F0A80197012A1998
:100E40003B094C095D0906C0A60195012E193F0911
:100E5000400B510B57FD08C011823382228224833C
:100E60003583468357831DC081E08183338222828C
:100E700088279927DC01821B930BA40BB50B848375
:100E80009583A683B7830DC0220F331F441F551FC0
:100E9000248335834683578382819381019793838B
:100EA00082832481358146815781DA01C901019706
:100EB000A109B1098F5F9F4FAF4FBF4328F30BC00C
:100EC000918333822282EA0CFB1C0C1D1D1DE482DF
:100ED000F5820683178383E08083248135814681F0
:100EE000578157FF1AC0C901AA2797FDA095BA2FAD
:100EF00081709070A070B070569547953795279582
:100F0000822B932BA42BB52B84839583A683B78345
:100F100082819381019693838283DF0101C0D20194
:100F2000CD01CDB7DEB7E2E10C94510DA0E2B0E007
:100F3000ECE9F7E00C94410D69837A838B839C8301
:100F40002D833E834F835887E9E0EE2EF12CEC0E83
:100F5000FD1ECE010196B7010E94000C8E010F5EAE
:100F60001F4FCE010596B8010E94000C8A8991E0BE
:100F700089278A8BC701B801AE01475E5F4F0E9487
:100F80004A060E942B0BA096E6E00C945D0DA0E2B1
:100F9000B0E0EDECF7E00C94410D69837A838B832C
:100FA0009C832D833E834F835887F9E0EF2EF12CED
:100FB000EC0EFD1ECE010196B7010E94000C8E01C1
:100FC0000F5E1F4FCE010596B8010E94000CC701AD
:100FD000B801AE01475E5F4F0E944A060E942B0B8C
:100FE000A096E6E00C945D0DA0E2B0E0EAEFF7E039
:100FF0000C94350D69837A838B839C832D833E8388
:101000004F835887CE010196BE01675F7F4F0E94D4
:10101000000CCE010596BE016F5E7F4F0E94000C52
:101020009985923088F089898230C8F0943019F41B
:10103000823051F404C0843029F4923081F486E87F
:1010400091E0C6C0923049F420E09A858A899813CD
:1010500021E02A87CE010996BBC0823049F420E006
:101060009A858A89981321E02A8BCE014196B0C0D7
:101070002D843E844F8458886D887E888F88988C14
:10108000EE24FF248701AA24BB24650140E050E040
:1010900060E070E0E0E0F0E0C10181709070892BC9
:1010A000E9F0E60CF71C081D191D9A01AB012A0D89
:1010B0003B1D4C1D5D1D80E090E0A0E0B0E0E6141B
:1010C000F7040805190520F481E090E0A0E0B0E005
:1010D000BA01A901480F591F6A1F7B1FAA0CBB1C2C
:1010E000CC1CDD1C97FE08C081E090E0A0E0B0E0E1
:1010F000A82AB92ACA2ADB2A3196E032F10549F03A
:10110000660C771C881C991C569447943794279436
:10111000C3CFFA85EA892B893C898B859C85280F6A
:10112000391F2E5F3F4F17C0CA0181709070892B05
:1011300061F016950795F794E79480E090E0A0E0C1
:10114000B0E8E82AF92A0A2B1B2B76956795579564
:1011500047952F5F3F4F77FDE7CF0CC0440F551FDA
:10116000661F771F17FD4160EE0CFF1C001F111F4B
:1011700021503040403090E0590790E0690790E4FA
:10118000790760F32B8F3C8FDB01CA018F7790705A
:10119000A070B07080349105A105B10561F447FDE0
:1011A0000AC0E114F1040105110529F0405C5F4F0C
:1011B0006F4F7F4F40781A8EFE1711F081E08A8FB3
:1011C0004D8F5E8F6F8F78A383E0898FCE01499614
:1011D0000E942B0BA096E2E10C94510DA8E1B0E027
:1011E000E4EFF8E00C943D0D69837A838B839C8354
:1011F0002D833E834F835887B9E0EB2EF12CEC0E04
:10120000FD1ECE010196B7010E94000C8E010F5EFB
:101210001F4FCE010596B8010E94000C298522308F
:1012200008F47EC03989323010F4B8017CC08A8558
:101230009A8989278A87243011F0223031F42317C4
:1012400009F06EC066E871E06EC0343039F41D8676
:101250001E861F86188A1C861B8604C0323021F425
:1012600084E08987B7015FC02B853C858B899C8989
:10127000281B390B3C872B87ED84FE840F8518894A
:10128000AD88BE88CF88D88CEA14FB040C051D05F8
:1012900040F4EE0CFF1C001F111F215030403C8712
:1012A0002B8720E030E040E050E080E090E0A0E0DC
:1012B000B0E460E070E0EA14FB040C051D0540F0AA
:1012C000282B392B4A2B5B2BEA18FB080C091D092C
:1012D000B695A79597958795EE0CFF1C001F111FDB
:1012E0006F5F7F4F6F31710531F7DA01C9018F7779
:1012F0009070A070B07080349105A105B10561F4C3
:1013000027FD0AC0E114F1040105110529F0205C54
:101310003F4F4F4F5F4F20782D873E874F87588B29
:10132000BE01675F7F4FCB010E942B0B6896EAE0FE
:101330000C94590DA8E1B0E0E0EAF9E00C94410DFD
:1013400069837A838B839C832D833E834F83588765
:1013500089E0E82EF12CEC0EFD1ECE010196B701BE
:101360000E94000C8E010F5E1F4FCE010596B80142
:101370000E94000C8985823040F08989823028F0F3
:10138000C701B8010E94780C01C08FEF6896E6E0B3
:101390000C945D0DA8E1B0E0E0EDF9E00C94410D96
:1013A00069837A838B839C832D833E834F83588705
:1013B00089E0E82EF12CEC0EFD1ECE010196B7015E
:1013C0000E94000C8E010F5E1F4FCE010596B801E2
:1013D0000E94000C8985823040F08989823028F093
:1013E000C701B8010E94780C01C08FEF6896E6E053
:1013F0000C945D0DA8E1B0E0E0E0FAE00C94410D42
:1014000069837A838B839C832D833E834F835887A4
:1014100089E0E82EF12CEC0EFD1ECE010196B701FD
:101420000E94000C8E010F5E1F4FCE010596B80181
:101430000E94000C8985823040F08989823028F032
:10144000C701B8010E94780C01C081E06896E6E00F
:101450000C945D0DA8E0B0E0E0E3FAE00C943E0DE2
:101460009B01AC0183E08983DA01C9018827B7FDBC
:1014700083959927AA27BB27B82E21153105410549
:10148000510519F482E089833AC08823A9F02030FD
:1014900080E0380780E0480780E8580729F460E0DA
:1014A00070E080E09FEC30C0EE24FF248701E21A58
:1014B000F30A040B150B02C079018A018EE1C82ED4
:1014C000D12CDC82CB82ED82FE820F831887C8018B
:1014D000B7010E94DC0A01971816190684F4082E39
:1014E00004C0EE0CFF1C001F111F0A94D2F7ED82FE
:1014F000FE820F831887C81AD90ADC82CB82BA828F
:10150000CE0101960E942B0B2896E9E00C945A0D0F
:10151000ACE0B0E0EEE8FAE00C94450D69837A8324
:101520008B839C83CE010196BE016B5F7F4F0E942F
:10153000000C8D81823061F1823050F1843021F4D1
:101540008E81882351F12EC02F81388537FD20C030
:101550006E812F3131051CF06623F9F023C08EE136
:1015600090E0821B930B29853A854B855C8504C0EE
:1015700056954795379527958A95D2F76623B1F00A
:1015800050954095309521953F4F4F4F5F4F0EC07E
:1015900020E030E040E050E009C02FEF3FEF4FEF98
:1015A0005FE704C020E030E040E050E8B901CA0144
:1015B0002C96E2E00C94610DEF92FF920F931F9333
:1015C0007B018C0180E0E81680E0F80681E00807E6
:1015D00080E0180788F48FEFE816F1040105110583
:1015E00031F028F088E090E0A0E0B0E017C080E0A3
:1015F00090E0A0E0B0E012C080E0E81680E0F806DD
:1016000080E0080781E0180728F088E190E0A0E07A
:10161000B0E004C080E190E0A0E0B0E020E230E083
:1016200040E050E0281B390B4A0B5B0B04C01695B9
:101630000795F794E7948A95D2F7F701E257FE4FA2
:101640008081281B310941095109C9011F910F915E
:10165000FF90EF900895DF92EF92FF920F931F9308
:10166000FC01E480F58006811781D1808081823081
:1016700048F480E090E0A0E1B0E0E82AF92A0A2BE3
:101680001B2BA5C0843009F49FC0823021F4EE24C6
:10169000FF24870105C0E114F1040105110519F4C7
:1016A000E0E0F0E096C0628173819FEF62387907D5
:1016B0000CF05BC022E83FEF261B370B2A313105C7
:1016C0002CF020E030E040E050E02AC0B801A70153
:1016D000022E04C076956795579547950A94D2F7E0
:1016E00081E090E0A0E0B0E004C0880F991FAA1F3D
:1016F000BB1F2A95D2F70197A109B1098E219F211D
:10170000A023B1230097A105B10521F081E090E06D
:10171000A0E0B0E09A01AB01282B392B4A2B5B2BC0
:10172000DA01C9018F779070A070B0708034910594
:10173000A105B10539F427FF09C0205C3F4F4F4F89
:101740005F4F04C0215C3F4F4F4F5F4FE0E0F0E040
:101750002030A0E03A07A0E04A07A0E45A0710F0C2
:10176000E1E0F0E079018A0127C06038710564F595
:10177000FB01E158FF4FD801C7018F779070A0702F
:10178000B07080349105A105B10539F4E7FE0DC0B4
:1017900080E490E0A0E0B0E004C08FE390E0A0E03F
:1017A000B0E0E80EF91E0A1F1B1F17FF05C01695B3
:1017B0000795F794E794319687E016950795F79487
:1017C000E7948A95D1F705C0EE24FF248701EFEF57
:1017D000F0E06E2F679566276795902F9F77D794D7
:1017E000DD24D7948E2F8695492F462B582F5D29BF
:1017F000B701CA011F910F91FF90EF90DF900895FC
:10180000FC01DB01408151812281622F6F7770E002
:10181000221F2227221F9381892F880F822B282F96
:1018200030E0991F9927991F11969C9311972115C4
:101830003105A9F5411551056105710511F482E0E5
:1018400037C082E89FEF13969C938E9312979A016C
:10185000AB0167E0220F331F441F551F6A95D1F774
:1018600083E08C930DC0220F331F441F551F129627
:101870008D919C911397019713969C938E93129739
:10188000203080E0380780E0480780E4580758F3AC
:1018900014962D933D934D935C93179708952F3F86
:1018A000310579F4411551056105710519F484E09C
:1018B0008C93089564FF03C081E08C9312C01C9246
:1018C00010C02F57304013963C932E93129783E00D
:1018D0008C9387E0440F551F661F771F8A95D1F7B9
:1018E000706414964D935D936D937C931797089550
:1018F0001F93DC01FB019C91923008F447C080816A
:10190000823008F443C0943051F411961C91843015
:1019100099F58181682F70E0611B71093FC08430A7
:1019200021F0923031F48230B9F18181882389F13C
:101930002DC011961C9111978230F1F081811817FA
:10194000D9F412962D913C9113978281938182173D
:10195000930794F028173907BCF014968D919D9148
:101960000D90BC91A02D2481358146815781281787
:1019700039074A075B0718F4112341F00AC08217A0
:101980009307A407B50740F4112319F061E070E054
:1019900005C06FEF7FEF02C060E070E0CB011F91E8
:1019A000089597FB092E07260AD077FD04D027D08B
:1019B00006D000201AF4709561957F4F0895F6F7D0
:1019C000909581959F4F089597FB092E05260ED07F
:1019D00057FD04D028D00AD0001C38F4509540950B
:1019E000309521953F4F4F4F5F4F0895F6F79095F3
:1019F0008095709561957F4F8F4F9F4F0895AA1BDB
:101A0000BB1B51E107C0AA1FBB1FA617B70710F0E9
:101A1000A61BB70B881F991F5A95A9F7809590951B
:101A2000BC01CD010895A1E21A2EAA1BBB1BFD012A
:101A30000DC0AA1FBB1FEE1FFF1FA217B307E407AD
:101A4000F50720F0A21BB30BE40BF50B661F771F05
:101A5000881F991F1A9469F76095709580959095E5
:101A60009B01AC01BD01CF0108952F923F924F928F
:101A70005F926F927F928F929F92AF92BF92CF921E
:101A8000DF92EF92FF920F931F93CF93DF93CDB727
:101A9000DEB7CA1BDB0B0FB6F894DEBF0FBECDBF9F
:101AA00009942A88398848885F846E847D848C8470
:101AB0009B84AA84B984C884DF80EE80FD800C8179
:101AC0001B81AA81B981CE0FD11D0FB6F894DEBF5C
:101AD0000FBECDBFED010895AF92BF92CF92DF92BE
:101AE000EF92FF920F931F93CF93DF93EC01A880A7
:101AF000B980CA80DB80A114B104C104D10441F4CF
:101B000084E2A82E89EDB82E8BE5C82E87E0D82E6A
:101B1000C601B5012DE133EF41E050E00E94E40C35
:101B200027EA31E440E050E00E94070E7B018C017F
:101B3000C601B5012DE133EF41E050E00E94E40C15
:101B4000CA01B9012CEE34EF4FEF5FEF0E94070E90
:101B50006E0D7F1D801F911F97FF04C06150704064
:101B600080409048688379838A839B839B013F7779
:101B7000C901DF91CF911F910F91FF90EF90DF90FE
:101B8000CF90BF90AF9008950E946C0D08958EE89D
:101B900092E00E946C0D0895A0E0B0E080938E0268
:101BA00090938F02A0939002B09391020895A6E1C2
:101BB000B0E044E050E00C94EC0D242F0E94FB0DAB
:101BC000252F0E94FB0D0C94E50D0E94FA0D272F86
:101BD0000C94FB0DDC01CB01FC01E199FECF06C0AA
:101BE000FFBBEEBBE09A31960DB20D9241505040D2
:101BF000B8F70895262FE199FECF9FBB8EBB2DBB72
:101C00000FB6F894E29AE19A0FBE01960895629F8A
:101C1000D001739FF001829FE00DF11D649FE00DE4
:101C2000F11D929FF00D839FF00D749FF00D659F45
:101C3000F00D9927729FB00DE11DF91F639FB00D44
:101C4000E11DF91FBD01CF0111240895F894FFCFC4
:101C500041766F696420204F62737461636C6573B1
:101C6000003E4A756D7020746F2053746172742148
:101C70003C002053636F72653A206E6E6E20200028
:101C800020486967686573743A206E6E6E000F00B5
:101C900058029600040001020304000F0005002012
:101CA0000100020003000400050007030E0E0E0EE3
:101CB00003071C1C181818181C1C10181C18181CBA
:101CC0001810111B0E0A0A0E1B11040E1F0E0A1B00
:101CD0001B11020000400000000000000000000195
:101CE00002020303030304040404040404040505BA
:101CF0000505050505050505050505050505060692
:101D00000606060606060606060606060606060673
:101D10000606060606060606060606060606070761
:101D20000707070707070707070707070707070743
:101D30000707070707070707070707070707070733
:101D40000707070707070707070707070707070723
:101D50000707070707070707070707070707080811
:101D600008080808080808080808080808080808F3
:101D700008080808080808080808080808080808E3
:101D800008080808080808080808080808080808D3
:101D900008080808080808080808080808080808C3
:101DA00008080808080808080808080808080808B3
:101DB00008080808080808080808080808080808A3
:101DC0000808080808080808080808080808080893
:101DD0000808080808080808080808080808010092
:021DE000000001
:00000001FF
