:100000000C94F0210C940F220C940F220C940F22CC
:100010000C940F220C940F220C940F220C940F229C
:100020000C940F220C94B3230C940F220C940F22E7
:100030000C947A220C940F220C940F220C940F2211
:100040000C940F220C940F220C940F220C940F226C
:100050000C940F220C940F220C940F220C940F225C
:100060000C940F220C940F220C940F220C940F224C
:100070000C940F220C940F220C940F220C940F223C
:100080000C940F220C940F220C940F2274612A6B93
:1000900000007F807F807F807F7F807E817C8D9845
:1000A0009C8F6865686665899D97989D8765666879
:1000B000646A909C97989C7F6367686370969B972F
:1000C000999A7762676762779A99979B9670636847
:1000D00067637F9C98979C906A64686665879D9823
:1000E000989D8966656865688E9C97989C81646810
:1000F00069656F93999597997A646969647597981A
:1001000095999673656969647D9A97969A916D66DB
:100110006A6866849B96969B8B68676A67698B9A08
:1001200096969B83666869656D929A9697997C64AA
:1001300069696573969895989775646969647A9901
:10014000979599936E65696865829B96969A8D6975
:10015000666A6768899B96969B8666686A666C90F5
:100160009A96979A7E65686965719599959898773A
:1001700064696964789898959994706569686580F0
:100180009A97969A8F6B666A6767879B96969B8805
:1001900067676A666A8E9A96979A806568696570DD
:1001A00094999598997964696964769898959995E0
:1001B00072656969657E9A97969A906C666A6866B8
:1001C000859B96969B8A68676A66698C9A96969BC9
:1001D00082656869656E92999597997B646969648F
:1001E00074979895989674656969647B9997969ABF
:1001F000926D65696865839B96969A8C69676A6754
:10020000688A9B96969B8566686A666C919A9697B3
:100210009A7D65696965729699959897766469691A
:10022000647999979599936F65696865819A9797AD
:100230009C8F6864686565899D98989D87656668E8
:100240006469909C97989C7F636768636F969B979F
:10025000999A7762676762779A99979B96706368B5
:1002600067637F9C98979C916A64686665879D9890
:10027000979D8A66656865688E9C97989C82636680
:1002800068636D949B97999B796267686274999A89
:10029000979A9872636867637C9B99979C926B644A
:1002A000686664849D98979C8C67656865678C9C7C
:1002B00097989D84646668646C939B97999B7C6215
:1002C00067686372989A979A9974636867627A9B71
:1002D00099979B946D63686663829C98979C8E68DF
:1002E000656865668A9D97989D86646668646A916C
:1002F0009C97989C7E6367686370969B979A9A76A2
:1003000062676762789A99979B966F636867638064
:100310009C98979C906964686665889D98989D896B
:1003200065656864698F9C97989C81636768636E54
:10033000959B97999A786267686275999A979A9748
:1003400071636867637D9C99979C926B646866642F
:10035000859D98979D8B66656865678D9C97989C31
:1003600083646668646C939B97999B7B6267686300
:1003700073989A979A9873636867627B9B99979B27
:10038000936C64686664839C98979C8D67656865C8
:10039000668B9C97989D85646668646B929C979920
:1003A0009C7D6367686371979A979A99756268678D
:1003B00062799B99979B956E63686763819C989718
:1003C0009C8F6964686565899D98989D8865666855
:1003D0006469909C97989C80636768636F969B970D
:1003E000999A7762676762769A9A979B9670636824
:1003F00067637E9C98979C916A64686664869D9802
:10040000979D8A66656865688E9C97989C826366EE
:1004100068636D949B97999B7A6267686374999AF5
:10042000979A9872636867637C9B99979B936C64B7
:10043000686664849D98979C8C67656865678C9CEA
:1004400097989D84646668646C939B97999B7C6382
:1004500067686372989A979A9974636867627A9BDF
:1004600099979B946D63686663829C98979C8E684D
:10047000656865668A9D97989D87656668646A91D8
:100480009C97989C7E6367686370969B979A9A7610
:1004900062676762779A99979B966F636867637FD5
:1004A0009C98979C906964686665879D97989C88DE
:1004B00067676A666A8E9A96979A81656869656FBA
:1004C00093999597997964696964769798959996BF
:1004D00072656969657D9A97969A916C666A686695
:1004E000859B96969B8A68676A67698C9A96969BA5
:1004F00083656869656E92999697997B6469696569
:1005000074969895989774646969647B999796999D
:10051000926E65696865839B96969A8C69676A672F
:10052000688A9B96969B8566686A666C909A969791
:100530009A7E6569696572959995989876646969F6
:10054000647999989599947065696865809A979788
:100550009C8F6964686665889D98989D88656668C3
:100560006469909C97989C80636768636F959B977C
:10057000999A7862676762769A9A979B9670636891
:1005800067637E9C98979C916A64686664869D9870
:10059000979D8A66656865688E9C97989C8263665D
:1005A00068636D949B97999B7A6267686374999A64
:1005B000979A9872636867627C9B99979B936C6427
:1005C000686664849D98979C8C67656865678C9C59
:1005D00097989D85646668646B929C97999C7C63F0
:1005E00067686372979A979A997462686762799B51
:1005F00099979B946E63686663819C98979C8E68BC
:1006000065686566899D98989D87656668646A9146
:100610009C97989C7F6367686370969B97999A777D
:1006200062676762779A99979B966F636867637F43
:100630009C98979C906A64686665879D98989D8948
:1006400065656864688F9C97989C81636668636E33
:10065000959B97999B796267686275999A979A9723
:1006600071636867637D9C99979C926B646866640C
:10067000859D98979C8B66656865678D9C97989D0E
:1006800083646668646C939B97999B7B62676863DD
:1006900073989A979A9873636867627A9B99979B05
:1006A000946D63686663839C98979C8D68656865A4
:1006B000668A9D97989D86646668646A919C9799FE
:1006C0009C7E6367686371979A979A997662676769
:1006D00062789A99979B956F63686763809C9897F7
:1006E0009C8F6964686665889D98989D8865666832
:1006F00064698F9C97989C80636768636F959B97EC
:10070000999A786267676276999A979B97716368FE
:1007100067637E9C99979C916A64686664869D98DD
:10072000979D8A66656865688D9C97989C826366CC
:1007300068636D949B97999B7A6267686374989AD3
:10074000979A9873636867627B9B99979C936C6395
:10075000686664859D98979D8A666568646A8F9CC3
:1007600097999B7D6267686275989A969C956F626F
:10077000696664859D98989D86656569626F959C9C
:10078000969B977362696664839D98979D8565655E
:10079000696272969B959C936F626964678A9D9665
:1007A000999B7C626867627D9C99979D8866656964
:1007B0006273979B959D906C636A636C909D959C0A
:1007C0009672626A64678A9E969A9977616965658E
:1007D000869E96999B7A62686664849D97999B7CB5
:1007E00062686664839D97999B7B62686664859E58
:1007F00096999A7961696566889E969B9874616AF4
:1008000064698E9D959C946E626A626E949C959DBF
:100810008D68646961779A99979D8263676763833E
:100820009D969A9976616A646A909D959D8F696498
:100830006A61779A99979D7F62686665899E959CA3
:10084000946E636A6273989A969D81626866658900
:100850009E959C936C636A61779A99979C7C616979
:100860006469909D959D8B66666862829D969B9655
:100870006F626A61759A99979C7A616A636C939CBE
:10088000959E84636866668C9D959D8C666668639C
:10089000859E959C926A646962809D969B956D6326
:1008A0006A617C9D979A976F636A617A9C979A9721
:1008B00070626A617A9C979A976F636A617C9D9671
:1008C0009B956D6369627F9D969C9269656863855F
:1008D0009E959D8D666767658C9D959E8563696411
:1008E0006B949B969D7B616A62739A9899987063EA
:1008F0006A62809E959C8E666667668E9C959E7FDA
:10090000616A6271999899986F636962839E959DF7
:10091000896368656B959A979B74626A617F9E95FF
:100920009D8C6468656A949A979B74626A62819EE2
:10093000959D886369646E989899976D6468648AD8
:100940009D959D7D616A617A9D969C8C6468646CBE
:10095000979999976C6468648D9C969D77626A629A
:10096000829E959E82626A62789D969C8B64696382
:10097000709A979B926767656B969999966B656776
:1009800067939A98996E646865909B979A7064686B
:10099000648E9C979B716368648E9C979B7164685E
:1009A000658F9B979A6F646866929A98986C656752
:1009B00068959999956867656D99979B8F65696347
:1009C000739C969D88626A627C9E959E7E616A6237
:1009D000879D969C72646866929A99956867646F21
:1009E0009B969C89626A617E9E959D786269648F00
:1009F0009B9897696764709B969D86616A61849DE8
:100A0000969C7164676997989B8D636A627D9E95D9
:100A10009D7563686795989A8F636A627D9E959DC0
:100A20007464686897979B8B626A61839D969B6DDF
:100A300066656F9B959D81616A638F9A99936569DD
:100A4000627D9E959C7165666D9A969D81626A64D1
:100A500091999A8F636A61839D97996A6763769D7E
:100A6000959D7464666C9A969D7F62696593989B68
:100A70008B626A62899B98946669627E9D969B6D83
:100A80006664729D959D7863676998979D83626A95
:100A900063909A9A8E636A62859C97976868637977
:100AA0009D959C7165666F9B959D7C626867969825
:100AB0009C88626A628C9B9992646962819D969916
:100AC0006B6764759D959D7564676B9A969D806252
:100AD000696593999B8C626A62889C989566696245
:100AE0007D9D969B6E6665729C959D7963686998FD
:100AF000979D84626A638F9A9A8F636A62849D97D6
:100B000098696863799D959C7265666E9B969D7DDC
:100B100062696695989C88626A628C9B9993656904
:100B200062809D969A6B6764759D959D7564676BF1
:100B300099969D8162696492999B8C626A62889C95
:100B400098966768627C9D959B6F6665719C959D84
:100B50007963686897979C85626A638F9A9A9063B5
:100B60006A62839D9798696763789D959D726466B4
:100B70006D9B969D7E62696694989B89626A628B82
:100B80009B98936569627F9D969A6C6664749D9547
:100B90009D7663676A99969D8262696491999A8D40
:100BA000636A62879C97966768627B9D959C6F6578
:100BB00065709C959D7A63686897979C86626A6366
:100BC0008E9A9991646962839D96996A6763779D0D
:100BD000959D7364666D9A969D7F62696594989BF6
:100BE0008A626A628A9B98946569627E9D969B6D13
:100BF0006664739D959D7763676A98979D83626924
:100C00006491999A8E636A62869C97976868637A02
:100C10009D959C7065656F9C959D7B6268679697B6
:100C20009C87626A638D9A9991646962829D9699A4
:100C30006A6763769D959D7464666C9A969D7F62E3
:100C4000696593989B8B626A62899C9895666962D4
:100C50007D9D969B6D6664729D959D78636869988D
:100C6000979D84626A63909A9A8F636A62859C9763
:100C700097686863799D959C7165666F9B959D7C6F
:100C800062686795989C88626A628C9B9992646995
:100C900062819D96996B6764759D959D7564676B80
:100CA0009A969D8062696592999B8C626A62889C23
:100CB00098956669627D9D969B6E6665719C959D13
:100CC0007963686897979C85626A638F9A9A8F6345
:100CD0006A62849D9798696863789D959C72656641
:100CE0006E9B969D7D62696695989C89626A628B0F
:100CF0009B9993656962809D969A6C6764749D95D3
:100D00009D7664676B99969D8162696492999B8DCB
:100D1000626A62879C98966768627C9D959B6F6506
:100D200065719C959D7A63686897979C85626A63F4
:100D30008E9A9990646A62839D9798696763779D9C
:100D4000959D7364666D9B969D7E62696694989B83
:100D50008A626A628B9B98936569627F9D969A6CA2
:100D60006664749D959D7663676A99969D826269B3
:100D70006491999A8D636A62869C97966768627B94
:100D80009D959C706565709C959D7B626867969744
:100D90009C86626A638E9A9991646962829D969933
:100DA0006A6763779D959D7364666C9A969D7F6272
:100DB000696594989B8A626A628A9B989466696264
:100DC0007E9D969B6D6664739D959D77636769981C
:100DD000979D83626A6490999A8E636A62869C97F3
:100DE000976868637A9D959C7065656F9C959D7BFF
:100DF00062686796979C87626A638D9A9A8F6A7316
:100E00006468919B969D86636866668D9D959E89B4
:100E100065676765899E959D8D66666863859E9505
:100E20009C9069656962819D969B946C6469627D02
:100E30009D969A966F636A61799C97999972626A96
:100E400061769A98989A76616A62729999979C7A73
:100E5000636B65709599959B7E646B656D929A94B2
:100E60009B81646A666A8F9A949C85656967688CC1
:100E70009B939C8966686866899C939B8C6867696C
:100E800065859C949A8F6A666A64819B949A926D38
:100E9000656B647E9B95999570656B637A9A96985D
:100EA0009773646C63769997979976636C6473977C
:100EB00098969A7A636B65709599959B7E646B653D
:100EC0006D929A949B81646A666A8F9A949C8565F8
:100ED0006967688C9B939C8966686866899C939B0C
:100EE0008C68676965859C949A8F6A666A64819B41
:100EF000949A926D656B647E9B95999570656B6312
:100F00007A9A96989773646C6376999797997663B3
:100F10006C64739798969A7A636B65709599959BB4
:100F20007E646B656D929A949B81646A666A8F9AFF
:100F3000949C85656967688C9B939C8966686866E4
:100F4000899C939B8C68676965859C949A8F6A6677
:100F50006A64819B949A926D656B647E9B9599956A
:100F600070656B637A9A96989773646C63769997B9
:100F7000979976636C64739798969A7A636B6570A9
:100F80009599959B7E646B656D929A949C81646A39
:100F90006569909C959E86636866668D9D959E8921
:100FA00065676765899E959D8D66666863859E9574
:100FB0009C9069656962819D969B946C6469627D71
:100FC0009D969A966F636A61799C97999972626A05
:100FD00061769A98989A76616A62729999979C7AE2
:100FE000616A636F969A969D7E6269646B939B9625
:100FF0009D8262696569909C959E86636866668D30
:101000009D959E8965676765899E959D8D666668D5
:1010100063859E959C9069656962819D969B946CA1
:101020006469627D9D969A966F636A61799C9799CF
:101030009972626A61769A98989A76616A627299F0
:1010400099979C7A616A636F969A969D7E626964AD
:101050006B939B969D8262696569909C959E866361
:101060006866668D9D959E8965676765899E959D75
:101070008D66666863859E959C9069656962819DB1
:10108000969B946C6469627D9D969A966F636A6183
:10109000799C97999972626A61769A98989A766122
:1010A0006A62729999979C7A616A636F969A969D23
:1010B0007E6269646B939B969D8262696569909C70
:1010C000959E86636866668D9D959E896567676552
:1010D000899E959D8D66666863859E959C906965E1
:1010E0006962819D969B946C6469627D9D969A96D7
:1010F0006F636A61799C97999972626A61769A982E
:10110000989A76616A62729999979C7A616A636F1C
:10111000969A969D7E6269646B939B969D826269A6
:101120006569909C959E86636866668D9D959E898F
:1011300065676765899E959D8D66666863859E95E2
:101140009C9069656962819D969B946C6469627DDF
:101150009D969A966F636A61799C97999972626A73
:1011600061769A98989A76616A62729999979C7A50
:10117000616A636F969A969D7E6269646B939B9693
:101180009D8262696569909C959E86636866668D9E
:101190009D959E8965676765899E959D8D66666844
:1011A00063859E959C9069656962819D969B946C10
:1011B0006469627D9D969A966F636A61799C97993E
:1011C0009972626A61769A98989A76616A6272995F
:1011D00099979C7A616A636F969A969D7E6269641C
:1011E0006B939B969D8262696569909C959E8663D0
:1011F0006866668D9D959E8965676765899E959DE4
:101200008D66666863859E959C9069656962829D1E
:10121000949A926D656B647E9B95999570656B63EE
:101220007A9A96989773646C637699979799766390
:101230006C64739798969A7A636B65709599959B91
:101240007E646B656D929A949B81646A666A8F9ADC
:10125000949C85656967688C9B939C8966686866C1
:10126000899C939B8C68676965859C949A8F6A6654
:101270006A64819B949A926D656B647E9B95999547
:1012800070656B637A9A96989773646C6376999796
:10129000979976636C64739798969A7A636B657086
:1012A0009599959B7E646B656D929A949C81646A16
:1012B0006569909C959E86636866668D9D959E89FE
:1012C00065676765899E959D8D66666863859E9551
:1012D0009C9069656962819D969B946C6469627D4E
:1012E0009D969A966F636A61799C97999972626AE2
:1012F00061769A98989A76616A62729999979C7ABF
:10130000616A636F969A969D7E6269646B939B9601
:101310009D8262696569909C959E86636866668D0C
:101320009D959E8965676765899E959D8D666668B2
:1013300063859E959C9069656962819D969B946C7E
:101340006469627D9D969A966F636A61799C9799AC
:101350009972626A61769A98989A76616A627299CD
:1013600099979C7A616A636F969A969D7E6269648A
:101370006B939B969D8262696569909C959E86633E
:101380006866668D9D959E8965676765899E959D52
:101390008D66666863859E959C9069656962819D8E
:1013A000969B946C6469627D9D969A966F636A6160
:1013B000799C97999972626A61769A98989A7661FF
:1013C0006A62729999979C7A616A636F969A969D00
:1013D0007E6269646B939B969D8262696569909C4D
:1013E000959E86636866668D9D959E89656767652F
:1013F000899E959D8D66666863859E959C906965BE
:101400006962819D969B946C6469627D9D969A96B3
:101410006F636A61799C97999972626A61769A980A
:10142000989A76616A62729999979C7A616A636FF9
:10143000969A969D7E6269646B939B969D82626983
:101440006569909C959E86636866668D9D959E896C
:1014500065676765899E959D8D66666863859E95BF
:101460009C9069656962819D969B946C6469627DBC
:101470009D969A966F636A61799C97999972626A50
:1014800061769A98989A76616A62729999979C7A2D
:10149000616A636F969A969D7E6269646B939B9670
:1014A0009D8262696569909C959E85636866678D7B
:1014B0009D959E88646766668C9D959D8964676628
:1014C000658C9D959E89646766668D9D959E8663F5
:1014D000686568909C959E826269646C949B969DF9
:1014E0007B616A62719999989A74626A617A9C9632
:1014F0009B946B646962859E959D8B64676668901A
:101500009C969D7D616A62729A9899986F636962F0
:10151000829E959D8B64686569939B969C78626AB0
:10152000617A9D969C91676667668F9C969D7B61AC
:101530006A62799D969C9067666667919B969C7798
:10154000626A617E9E959D8A6368646D9899999898
:101550006D6468648B9D959D7C616A617C9D959DA1
:101560008A6369646F99989A9569666767919B9792
:101570009B72636963889D959D7B616A61809E957E
:101580009E83626A62799D959D89636963749C9666
:101590009C8D646963709A979B906568646F999756
:1015A0009B916668646E99979B916668646F9A9741
:1015B0009B8F656863719B969C8C636963759C9532
:1015C0009D87626A627B9D959E80616A61839D951D
:1015D0009D786269638C9C979A6F65676895999905
:1015E00093676864719B969D88626A617E9E959DF3
:1015F000796269638E9B97986A66656D9A979C8AF3
:10160000626A617F9E959D76636965929A999366F9
:101610006863759D959E7E626A638D9B98976967E6
:1016200064729C959E80616A628C9B9896686863E0
:10163000749D959E7C62696491999A916469627DBA
:101640009E959C7264676B99969D85616A628B9B7F
:1016500098956669627A9E959D7264666C9A969D6D
:101660008162696491999A8E636A61859C97976893
:101670006863799D959C706565709C959D7963679D
:101680006998979D8162696594989C886269638F67
:101690009A9A8D6369628B9B9990646962889B9921
:1016A00092656962869C9992656962869C99926549
:1016B0006862879B9991656863899B9A8E64686369
:1016C0008C9A9B8A63686590999C856367689498F7
:1016D0009C7F63666C98989C776465739B98996F00
:1016E00065637D9C9994696764879B9B8B6567673D
:1016F000919A9C7F64656F9899997365647C9B9AB5
:10170000926966658A9B9B8564656D959A9A7564F6
:10171000647B9B9A916965668B9B9B8164647297DD
:101720009B96706465839B9B8866646D939B98759C
:1017300064647F9B9C8B68636C919C987763647EE8
:101740009A9C8A68636D929C97756365819B9C8760
:10175000676371949D94716267879C9B80646378D2
:10176000989D8D6B626D8F9D96766266839C9B8340
:10177000656277979E8D6C616D8F9E9575616785AB
:101780009D9A7F64637C999D88686173949E8F6E37
:10179000606D8D9F95756168879D997C6365809B61
:1017A0009C8265627A989E87686176959F8C6C6052
:1017B00072919F8F6F606E8E9F9272606C8B9F9400
:1017C00075606A899F96776168879E97796167855A
:1017D0009D997B6266839C9A7E6364809B9B8064F8
:1017E000637E9A9C8265627C999D8467627A989EEA
:1017F00087686177969E896A6075949F8B6B60732A
:10180000939F8D6D6071919F8F6F606F8F9F9171AE
:10181000606D8D9F9373606B8B9F9475606A899EDA
:1018200096776168879E987A6267849D997C6265E5
:10183000829C9A7E6364809B9B8064637E9A9C8377
:1018400066627B999D85676179979E8768617796C7
:101850009F896A6075949F8B6C6073929F8D6E6098
:1018600071919F8F6F606F8F9F9171606D8D9F934E
:1018700073606B8B9F95766069889E9678616886A9
:101880009E987A6266849D997C6265829C9A7E634A
:10189000647F9B9C8165637D9A9D8366627B999D35
:1018A00085676179979E87696177969F8A6A607478
:1018B000949F8C6C6072929F8E6E6070909F9070FF
:1018C000606E8E9F9272606D8C9F9374606B8A9F26
:1018D00095766069889E97786168869E987A626638
:1018E000849D997D6365819C9B7F64647F9B9C81C3
:1018F00065637D9A9D8366627B989E866761789713
:101900009E88696176959F8A6B6074949F8C6C60E9
:1019100072929F8E6E6070909F9070606E8E9F929C
:1019200072606C8C9F9474606A8A9F9576616988F6
:101930009E97786167859D987B6266839D9A7D639B
:1019400065819C9B7F64647F9B9C8165637C999D82
:101950008466627A989E86686178979E88696076C8
:10196000959F8A6B6074939F8C6D6072919F8E6E51
:101970006070909F9070606E8E9F9272606C8C9F72
:101980009475606A899F96776169879E9779616788
:10199000859D997B6266839D9A7D6365819C9B8012
:1019A00064637E9A9C8265627C999D8467627A9862
:1019B0009E86686178969E896A6075959F8B6B603C
:1019C00073939F8D6D6071919F8F6F606F8F9F91EB
:1019D00071606D8D9F9373606C8B9F9475606A8945
:1019E0009F96776168879E97796167859D997B62ED
:1019F00066829C9A7E6364809B9B8064637E9A9CD3
:101A00008265627C999D84676179989E8768617719
:101A1000969E896A6075949F8B6B6073939F8D6DA2
:101A20006071919F8F6F606F8F9F9171606D8D9FBF
:101A30009373606B8B9F9575606A899E96776168DA
:101A4000869E987A6267849D997C6265829C9A7E64
:101A50006364809B9B8064637D9A9C8366627B99B0
:101A60009D85676179979E87686177969F896A608F
:101A700075949F8B6C6073929F8D6E6071909F8F39
:101A80006F606F8F9F9171606D8D9F9374606B8A93
:101A90009F95766069889E96786168869E987A623E
:101AA00066849D997C6365829C9B7F64647F9B9C1C
:101AB0008165637D9A9D8366627B989D8567617968
:101AC000979E87696176959F8A6A6074949F8C6CF3
:101AD0006072929F8E6E6070909F9070606E8E9F0D
:101AE0009272606C8C9F9374606B8A9F957661692B
:101AF000889E97786168869E987A6266839D9A7DB3
:101B00006365819C9B7F64647F9B9C8165637D9AF8
:101B10009D8366627A989E86686178979E886961DF
:101B200076959F8A6B6074939F8C6C6072929F8E87
:101B30006E6070909F9070606E8E9F9272606C8CE1
:101B40009F9474606A8A9F95766169889E9779618F
:101B500067859D987B6266839C9A7D6365809E9471
:101B60007560799D9169658D9F7E60759B946B63AF
:101B7000899F82617299976F6285A086626E979A3B
:101B80007260819F8A646B949C76607D9E8D66688E
:101B9000909D7A5F799D9168658D9F7E60759B941D
:101BA0006B63899F82617299976F62859F86626E6F
:101BB00096987363819D89656C929A76627D9C8C00
:101BC000676A8F9B7A627A9B906A678C9D7E627649
:101BD0009A936D65899D82637398957064859D85E0
:101BE000646F95987362819D89656C929A76627D27
:101BF0009C8C676A8F9B7A627A9B906A678C9D7EC9
:101C000062769A936D65899D8263739895706485F9
:101C10009D85646F95987362819D89656C929A76B3
:101C2000627D9C8C676A8F9B7A627A9B906A678CD4
:101C30009D7E62769A936D65899D82637398957097
:101C400064859D85646F95987362819D89656C92AA
:101C50009A76627D9C8C676A8F9B7A627A9B906A87
:101C6000678C9D7E62769A936D65899D8263739879
:101C7000957064859D85646F95987362819D896573
:101C80006C929A76627D9C8C676A8F9B7A627A9B53
:101C9000906A678C9D7E62769A936D65899D82635A
:101CA0007398957064859D85646F95987362819D26
:101CB00089656C929A76627D9C8C676A8F9B7A624A
:101CC0007A9B906A678C9D7E62769A936D65899DFA
:101CD00082637398957064859D85646F959873622F
:101CE000819D89656C929A76627D9C8C676A8F9BD8
:101CF0007A60799D9168658D9F7E60759B946B631A
:101D0000899F82617299976F6285A086626E979AA9
:101D10007260819F8A646B949C76607D9E8D6668FC
:101D2000909D7A5F799D9168658D9F7E60759B948B
:101D30006B63899F82617299976F6285A086626EDC
:101D4000979A7260819F8A646B949C76607D9E8D69
:101D50006668909D7A5F799D9168658D9F7E6075BC
:101D60009B946B63899F82617299976F6285A0864D
:101D7000626E979A7260819F8A646B949C76607D94
:101D80009E8D6668909D7A5F799D9168658D9F7E36
:101D900060759B946B63899F82617299976F62856E
:101DA000A086626E979A7260819F8A646B949C761B
:101DB000607D9E8D6668909D7A5F799D9168658D46
:101DC0009F7E60759B946B63899F82617299976F08
:101DD0006285A086626E979A7260819F8A646B9416
:101DE0009C76607D9E8D6668909D7A5F799D9168F6
:101DF000658D9F7E60759B946B63899F82617299EC
:101E0000976F6285A086626E979A7260819F8A64DE
:101E10006B949C76607D9E8D6668909D7A5F799DBF
:101E20009168658D9F7E60759B946B63899F8261CD
:101E30007299976F6285A086626E979A7260819F91
:101E40008A646B949C76607D9E8D6668909D7A5FB7
:101E5000799D9168658D9F7E60759B946B63899F6A
:101E600082617299976F6285A086626E979A72609E
:101E7000819F8A646B949C76607D9E8D6668909D40
:101E80007A5F799D9168658D9F7E60759B946B6389
:101E9000899F82617299976F6285A086626E979A18
:101EA0007260819F8A646B949C76607D9E8D66686B
:101EB000909D7A5F799D9168658D9F7E60759B94FA
:101EC0006B63899F82617299976F6285A086626E4B
:101ED000979A7260819F8A646B949C76607D9E8DD8
:101EE0006668909D7A5F799D9168658D9F7E60752B
:101EF0009B946B63899F82617299976F6285A086BC
:101F0000626E979A7260819F8A646B949C76607D02
:101F10009E8D6668909D7A5F799D9168658D9F7EA4
:101F200060759B946B63899F82617299976F6285DC
:101F3000A086626E979A7260819F8A646B949C7689
:101F4000607D9E8D6668909D7A5F799D9168658DB4
:101F50009F7E60759B946B63899F82617299976F76
:101F60006285A086626E979A7260819F8A646B9484
:101F70009B76627D9C8C676A8F9B7A627A9B906A63
:101F8000678C9D7E62769A936D65899D8263739856
:101F9000957064859D85646F95987362819D896550
:101FA0006C929A76627D9C8C676A8F9B7A627A9B30
:101FB000906A678C9D7E62769A936D65899D826337
:101FC0007398957064859D85646F95987362819D03
:101FD00089656C929A76627D9C8C676A8F9B7A6227
:101FE0007A9B906A678C9D7E62769A936D65899DD7
:101FF00082637398957064859D85646F959873620C
:10200000819D89656C929A76627D9C8C676A8F9BB4
:102010007A60799D9168658D9F7E60759B946B63F6
:10202000899F82617299976F6285A086626E979A86
:102030007260819F8A646B949C76607D9E8D6668D9
:10204000909D7A5F799D9168658D9F7E60759B9468
:102050006B63899F82617299976F6285A086626EB9
:10206000979A7260819F8A646B949C76607D9E8D46
:102070006668909D7A5F799D9168658D9F7E607599
:102080009B946B63899F82617299976F6285A0862A
:10209000626E979A7260819F8A646B949C76607D71
:1020A0009E8D6668909D7A5F799D9168658D9F7E13
:1020B00060759B946B63899F82617299976F62854B
:1020C000A086626E979A7260819F8A646B949C76F8
:1020D000607D9E8D6668909D7A5F799D9168658D23
:1020E0009F7E60759B946B63899F82617299976FE5
:1020F0006285A086626E979A7260819F8A646B94F3
:102100009C76607D9E8D6668909D7A5F799D9168D2
:10211000658D9F7E60759B946B63899F82617299C8
:10212000976F6285A086626E979A7260819F8A64BB
:102130006B949C76607D9E8D6668909D7A5F799D9C
:102140009168658D9F7E60759B946B63899F8261AA
:102150007299976F6285A086626E979A7260819F6E
:102160008A646B949C76607D9E8D6668909D7A5F94
:10217000799D9168658D9F7E60759B946B63899F47
:1021800082617299976F6285A086626E979A72607B
:10219000819F8A646B949C76607D9E8D6668909D1D
:1021A0007A5F799D9168658D9F7E60759B946B6366
:1021B000899F82617299976F6285A086626E979AF5
:1021C0007260819F8A646B949C76607D9E8D666848
:1021D000909D7A5F799D9168658D9F7E60759B94D7
:1021E0006B63899F82617299976F6285A086626E28
:1021F000979A7260819F8A646B949C76607D9E8DB5
:102200006668909D7A5F799D9168658D9F7E607507
:102210009C946C638A9D7D626D949D7A607399999C
:1022200073607B9D936D62839F8D67658A9F8663D4
:102230006A919E7E6071979B7660789B966F617FB6
:102240009E906963879F8964688E9F81616E959C6B
:102250007A60759A9872607C9D926C62849F8C669D
:10226000668B9F85626B929C7D627396987662798D
:102270009A947063819D8E6A66889D87666A8E9C3B
:10228000806370949A796276999672627D9C906C64
:1022900064859D8A67688B9D83646D929B7C627464
:1022A000979875627A9B936F63829D8D6966899D0D
:1022B00086656B8F9C7F637195997862779995712C
:1022C000627E9C906B65869D8967698C9D82636E3A
:1022D000929B7B6275979774627B9B926E64839DE1
:1022E0008C69678A9D85656C909C7E6272959977F2
:1022F00062789A947063809C8F6B65879D88666A0C
:102300008D9D81636F939A7A6275989673627C9BB8
:10231000916D64849D8B68688B9D84646D919C7DB8
:10232000627396987662799A946F63819D8E6A66DD
:10233000889D87666A8E9C806370949A796276998C
:102340009672627E9C906C64859D8A67688B9D8383
:10235000646D929B7C6274979875627A9B936F63AD
:10236000829D8D6966899D86656B8F9C7F63719563
:1023700099786277999571627F9C8F6B65869D894C
:1023800067698C9D82636E929B7B6275979774627E
:102390007C9B926E64839D8C69678A9D85656C9039
:1023A0009C7E627295997760789C966F61809E9012
:1023B0006964879F8964688E9F81616E959C79604E
:1023C000759A9872607C9D926C62849F8C66668B15
:1023D0009F84626B929D7D6072989A7560799C95DE
:1023E0006E61819F8F686488A08864698F9E806118
:1023F0006F969C7860769A9771607D9E916B6385ED
:102400009F8B66678C9F83626C939D7C60739999A8
:1024100074607A9D946D61829F8E6865899F8663E2
:102420006A909E7F6070969B775F779B9670607FC7
:102430009E916A63869F8A65678D9F82616D949D78
:102440007A6074999973607B9D936C62839F8D67AA
:10245000658A9F85636B919E7E6071979B7660789D
:102460009C966F61809E90696487A08964688E9F46
:1024700081616E959C7960759A9872607C9D926C72
:1024800062849F8C66668B9F84626B929D7D607276
:10249000989A7560799C956E61819F8F686488A019
:1024A0008764698F9E80616F969C7860769A977139
:1024B000607E9E916B63859F8B65678D9F83626C49
:1024C000939D7B6073999974607A9D946D61829FEE
:1024D0008E6865899F86636A909E7F6070969B7701
:1024E0005F779B9670607F9E906A63869F8A656720
:1024F0008E9F82616D949D7A6074999973607B9DC3
:10250000936C62839F8D67658A9F85636B919E7EC6
:102510006071979B7660789C966F61809E8F6964EE
:1025200087A08864688F9F81616E959C7960759A99
:102530009872607C9D926B62849F8C66668C9F848F
:10254000626B929D7C6072989A7560799C956E61C1
:10255000819F8F686488A08764698F9E80616F9671
:102560009C7860769B9771607E9E916B63859F8A55
:1025700065678D9F83626C939D7B6073999974608E
:102580007A9D946D61829F8E67658A9F86636A904B
:102590009E7F6070969B775F779B9670607F9E9022
:1025A0006A63869F8965688E9F82616D949D7A605B
:1025B00074999973607B9D936C62839F8C67658B24
:1025C0009F85636B919E7E6071979A7660789C96EA
:1025D0006F61809E8F696487A08864688F9F816126
:1025E0006E959C7960759A9872607D9D926B6284FD
:1025F0009F8B66668C9F84626C929D7C6072989AB9
:102600007560799C956E61819F8E686489A08764EE
:1026100069909E80616F969C7860769B9771607ED2
:102620009E916B63859F8B67688C9D83646E929B84
:102630007C6274979775627B9B936E63829D8D69B4
:1026400067899D86656B8F9C7F62719599786278AA
:10265000999571637F9C8F6B65869D8967698D9D58
:1026600082636F939B7B6275989774627C9B926D7B
:1026700064839D8C68678A9D85656C909C7E627280
:1026800096997762799A947063809C8E6A66879D2A
:1026900088666A8E9D81636F939A7A627698967344
:1026A000627D9B916D64849D8B68688B9D84646D55
:1026B000919B7D6273969876627A9A936F63819DFF
:1026C0008D6A66889D876569909E80616F969C780B
:1026D0005F769B9771607E9E916A63859F8A65672E
:1026E0008D9F83626C939D7B6073999974607B9DD1
:1026F000946D61829F8D67658A9F86636A919E7ED5
:102700006070979B775F779B9670607F9E906A63FF
:10271000879F8965688E9F82616D949D7A607499A8
:102720009873607C9D936C62839F8C67668B9F859A
:10273000636B929E7D6071979A7660789C956F61CD
:10274000809F8F696488A08864688F9F81616E957F
:102750009C7960759A9872607D9E926B62849F8B63
:1027600066668C9F84626C929D7C6072989A75609C
:10277000799C956E61819F8E6864899F876469905A
:102780009E80616F969B7860769B9771607E9E912C
:102790006A63859F8A65678D9F83626D939D7B6069
:1027A00073999974607B9D946D61829F8D67658A32
:1027B0009F86636A919E7E6070979B775F779B96FA
:1027C00070607F9E906A63879F8965688E9F826133
:1027D0006D949C7A6074999873607C9D936C62830D
:1027E0009F8C67668B9F85636B929E7D6071979AC5
:1027F0007660789C956F61809F8F696488A08864FB
:10280000688F9F81616E959C7960759A9872607DE2
:102810009E926B62849F8B66668C9F84626C939D94
:102820007C6072989A75607A9C956E61819F8E68C3
:1028300064899F876369909E7F616F969B785F76BE
:102840009B9771607E9E916A63869F8A65678D9F64
:1028500083626D939D7B6073999974607B9D946D89
:1028600061829F8D67658A9F86636A919E7E607094
:10287000979B775F779B9670607F9E906A63879F38
:102880008965688E9F82616D949C7A607499987353
:10289000607C9D936C62839F8C67668B9F85626B67
:1028A000929E7D6071979A7660799C956F61809F0A
:1028B0008F696488A08864688F9F80616E959C7919
:1028C00060759A9872607D9D926B62849F8C67663A
:1028D0008B9F86636A909E7F616F959C79607599E6
:1028E0009973607A9C956F617F9E916A63859F8CD6
:1028F0006765899F8864688D9F83626B919E7F6105
:102900006E949D7B6071979B7860759999756078DE
:102910009B9772607A9C9670607D9D946E617F9E9D
:10292000926C61819E916B62829F8F6A63849F8E9D
:102930006963859F8D6863869F8D6864869F8D68B7
:1029400064869F8D6864869F8D6864869F8D6863AA
:10295000859F8E6963849F8F6A62839F906B62817B
:102960009E926C617F9E936E617D9D9570607A9C56
:10297000977260789A99756075999B786072969C49
:102980007C606F949E7F616B909F8463688D9F884D
:102990006566889F8C6863849F916C617E9D95704D
:1029A00060799B99756074979C7B606E939E816241
:1029B000698E9F886565879F8E6A62819E946F602D
:1029C0007A9B99766072969D7D616C909F85646616
:1029D000899F8D6962819E947060789A9A78607000
:1029E000949E8162698C9F8A6863839E936F6079ED
:1029F0009A9A786070939E8263688A9F8C696280DD
:102A00009D95726075989C7D616B8F9F88666484CC
:102A10009E926F60789A9B7A606D919F86656585BE
:102A20009F926E60799A9A7A606D909F87666484AF
:102A30009E93706076989C7D616A8D9F8B686280A2
:102A40009D97746072949E836466879F916E60798F
:102A5000999B7C616B8E9F8B69627F9C9876606F7F
:102A6000929F866564839E94726073959E8263666E
:102A7000879F926F6076979D806268899F906E6055
:102A800077989C7E62688A9F906D6078989C7E6241
:102A900068899F906E6077989D806367889F926F2A
:102AA0006075969E826465859E94726071939F8620
:102AB0006663819D9777606D8F9F8B6A617B9A9B20
:102AC0007C62698A9F916F6075969E846564829D21
:102AD0009776606D8F9F8C6A617A999C7F63678718
:102AE0009F94726070929F8968617C9A9B7D6268F6
:102AF000889F93726071929F8969617B9A9B7E62C5
:102B000067869E9574606E909F8C6B6078989D82AE
:102B10006564819D9879616A8B9F91706071939FC4
:102B20008969617A999D816464829D9879616A8AD4
:102B30009F92716070919F8C6B6077969E856662A4
:102B40007D9B9B7E6366849E9778606A8A9F937262
:102B5000606F909F8E6D6074949F89696179989D74
:102B60008466637E9B9B7F6365829D997B6167869C
:102B70009E9677606A8A9F9473606D8D9F91705F57
:102B80007090A08E6E6072929F8C6C6074949F8A1D
:102B90006A6076969F88696178979E866861799861
:102BA0009E8567617A989D8467627B999D84666241
:102BB0007B999D8466627B999D8466627B999D84E6
:102BC00067627A989E85676179979E876861789633
:102BD0009E88696076959F8A6B6074939F8C6C6009
:102BE00072929F8E6E6070909F9070606E8E9F92BA
:102BF00072606C8C9F9474606A8A9F957661698715
:102C00009E97796167859D987B6266839D9A7D63B7
:102C100065819C9B7F64637E9B9C8265637C999DA0
:102C20008466627A989E86686178969E88696076E6
:102C3000959F8A6B6073939F8D6D6071919F8F6F6D
:102C4000606F8F9F9171606E8D9F9273606C8B9F90
:102C50009475606A899F96776168879E97796167A6
:102C6000859D997B6266839C9A7E6364809B9B8032
:102C700064637E9A9C8265627C999D8467627A987F
:102C80009E87686177969E896A6075959F8B6B6059
:102C900073939F8D6D6071919F8F6F606F8F9F9108
:102CA00071606D8D9F9373606B8B9F9475606A8963
:102CB0009E96776168879E98796167849D997C620A
:102CC00065829C9A7E6364809B9B8064637E9A9CF1
:102CD0008266627B999D85676179979E8768617737
:102CE000969F896A6075949F8B6C6073929F8D6DBF
:102CF0006071919F8F6F606F8F9F9171606D8D9FDD
:102D00009373606B8B9F95756069889E96786168F8
:102D1000869E987A6266849D997C6265829C9A7E82
:102D20006364809B9C8165637D9A9D8366627B99C9
:102D30009D85676179979E87696177969F896A60AB
:102D400074949F8C6C6072929F8E6E6070909F9056
:102D500070606E8E9F9172606D8C9F9374606B8AB1
:102D60009F95766069889E97786168869E987A625A
:102D700066849D997C6365819C9B7F64647F9B9C3A
:102D80008165637D9A9D8366627B989D8567617886
:102D9000979E88696176959F8A6B6074949F8C6C0E
:102DA0006072929F8E6E6070909F9070606E8E9F2A
:102DB0009272606C8C9F9474606B8A9F9576616947
:102DC000889E97786167869E987B6266839D9A7DD0
:102DD0006365819C9B7F64647F9B9C8165637D9917
:102DE0009D8466627A989E86686178979E886960FD
:102DF00076959F8A6B6074939F8C6D6072929F8EA4
:102E00006E6070909F9070606E8E9F9272606C8CFE
:102E10009F9474606A8A9F96776169879E977961AB
:102E200067859D997B6266839D9A7D6365819C9B86
:102E30007F64637E9A9C8265627C999D8466627AD7
:102E4000989E86686178969E88696076959F8B6B60
:102E50006073939F8D6D6071919F8F6F606F8F9F77
:102E60009171606D8D9F9273606C8B9F9475606A99
:102E7000899F96776168879E97796167859D997B21
:102E80006266839C9A7E6364809B9B8064637E9A67
:102E90009C8265627C999D84676179989E87686150
:102EA00077969E896A6075949F8B6B6073939F8DF4
:102EB0006D6071919F8F6F606F8F9F9171606D8D4D
:102EC0009F9373606B8B9F9475606A899E96776100
:102ED00068879E987A6267849D997C6265829C9AD5
:102EE0007E6364809B9B8064637E9A9C8366627B26
:102EF000999D85676179979E87686177969F896AB2
:102F00006075949F8B6C6073929F8D6E6071919FC2
:102F10008F6F606F8F9F9171606D8D9F9373606BEA
:102F20008B9F95766069889E96786168869E987A70
:102F30006266849D997C6265829C9A7E63647F9BB5
:102F40009C8165637D9A9D8366627B999D8567619F
:102F500079979E87696177969F8A6A6074949F8C3F
:102F60006C6072929F8E6E6070909F90705F6E8E9C
:102F70009F9270626991988E7763666B98979C8236
:102F800061696492999B8D626A62879C9896676872
:102F9000627C9D959C6F6565719C959D7A63686860
:102FA00097979C86626A638E9A9990646A62839D01
:102FB0009798696763779D959D7364666D9B969DF1
:102FC0007E62696694989B8A646B648A999792671B
:102FD0006A647F9B94986E6866749B949B7765691E
:102FE0006B97959B82646B669097998C656B6486F2
:102FF0009A9695696A647B9B949A716767719A94B3
:103000009B7B646A6995969A86646B658D999890A6
:10301000666B64829B95976B6965779B949B7466DE
:10302000686E99949B7F646A679297998A646B64CF
:10303000899A9693676A647E9B94996E6866749B7E
:10304000949B7865696B97959B83646B658F989863
:103050008D656B64859A9695696A657A9B949A7179
:103060006767709A949B7C646A6994969A87646B8C
:10307000648C999790666B64819B95976C69657673
:103080009B949B7566686D98949B80646B67929720
:10309000998A646B64889A9693686A647D9B949914
:1030A0006F6866739B949B7965696A96959B846447
:1030B0006B658E98988E656B64849B95966A69653E
:1030C000799B949A7267676F99949B7D646A689400
:1030D000969A88646B648B999791666B64809B95D4
:1030E000986D6866769B949B7666686C98959B81D4
:1030F000646B669197998B646B64879A9694686AFF
:10310000647C9B949A6F6866719C959D79636868EE
:1031100097979C85626A638F9A9A90636A62849D8E
:103120009798696863789D959C7265666E9B969D7D
:103130007D62696695989C89626A628B9B999365AA
:103140006962809D969A6C6764749D959D766367AD
:103150006A99969D8262696492999B8D626A628780
:103160009C97966768627B9D959C6F6565709C9542
:103170009D7A63686897979C86626A638E9A999035
:10318000646A62839D97986A6763779D959D73646F
:10319000666D9B969D7E62696694989B8A626A6260
:1031A0008A9B98946569627F9D969A6D6664739D0B
:1031B000959D7763676A99969D8262696491999AF1
:1031C0008E636A62869C97976868637A9D959C7007
:1031D0006565709C959D7B62686796979C87626A1F
:1031E000638D9A9991646962829D96996A67637604
:1031F0009D959D7464666C9A969D7F6269659398AF
:103200009B8B626A62899B98946669627E9D969B9D
:103210006D6664729D959D7863676998979D8362DA
:103220006A64909A9A8E636A62859C9797686863CD
:103230007A9D959C7165666F9B959D7C626867968B
:10324000989C88626A628C9B9992646962819D965F
:10325000996B6764759D959D7464676C9A969D8063
:1032600062696593999B8B626A62899C989566698D
:10327000627D9D969B6E6665729C959D796368697B
:1032800098979D84626A638F9A9A8F636A62849D1D
:103290009798696863799D959C7165666E9B969D0C
:1032A0007D62696695989C88626A628C9B99936539
:1032B0006962809D969A6B6764759D959D7564673C
:1032C0006B99969D8162696492999B8C626A62880F
:1032D0009C98966768627C9D959B6F6665719C95CE
:1032E0009D7963686897979C85626A638F9A9A90C4
:1032F000636A62849D9798696863789D959D7264FE
:10330000666D9B969D7E62696694989B89626A62EF
:103310008B9B98936569627F9D969A6C6664749D99
:10332000959D7663676A99969D8262696491999A80
:103330008D636A62879C97966768627B9D959C6F98
:103340006565709C959D7A63686897979C86626AAC
:10335000638E9A9991646962839D96996A6763778F
:103360009D959D7364666D9A969D7E62696594983D
:103370009B8A626A628A9B98946569627E9D969A2E
:103380006D6664739D959D7765696B97959B826467
:103390006B668F98988D656B64869A9695696A645A
:1033A0007B9B949A716767709A949B7B646A69951A
:1033B000969A86646B648C999790666B64829B95F1
:1033C000976C6965779B949B7566686D98949B7FF5
:1033D000646B679297998A646B64899A9693686A1A
:1033E000647E9B94996F6866739B949B7865696B08
:1033F00096959B83646B658F98988E656B64859AB0
:1034000095966A69657A9B949A7267677099949B9E
:103410007C646A6894969A87646B648B99979166CA
:103420006B64819B95986C6864759D959D756467C8
:103430006B9A969D8062696593999B8C626A62889B
:103440009C98956669627D9D969B6E6665719C955C
:103450009D7963686998979C85626A638F9A9A8F51
:10346000636A62849D9798696863789D959C72658C
:10347000666E9B969D7D62696695989C89626A627C
:103480008B9B9993656962809D969A6C6764749D25
:10349000959D7664676B99969D8162696492999B0C
:1034A0008D626A62879C98966768627C9D959B6F27
:1034B0006665719C959D7A63686897979C85626A3A
:1034C000638E9A9990646A62839D9798696763781E
:1034D0009D959D7264666D9B969D7E6269669498CB
:1034E0009B89626A628B9B98936569627F9D969ABD
:1034F0006C6664749D959D7663676A99969D8262F9
:10350000696491999A8D636A62879C9796676862ED
:103510007B9D959C706565709C959D7B63686796A7
:10352000979C86626A638E9A9991646962829D967D
:10353000996A6763779D959D7364666C9A969D7F83
:1035400062696594989B8A626A628A9B98946669AC
:10355000627E9D969B6D6664739D959D776367699A
:1035600098979D83626A6490999A8E636A62869C3A
:1035700097976868637A9D959C7065656F9C959D2B
:103580007B62686796979C87626A628D9B9992645A
:103590006962819D96996B6764769D959D74646759
:1035A0006C9A969D8062696593999B8B626A628929
:1035B0009C98956669627D9D969B6E6665729C95EA
:1035C0009D7863686998979D84626A63909A9A8FE0
:1035D000636A62859C9797686863799D959C71651D
:1035E000666E9B969D7C62686695989C88626A620E
:1035F0008C9B9992656962819D969A6B6764759DB3
:10360000959D7564676B9A969D8162696592999B99
:103610008C626A62889C98956668627C9D969B6EB7
:103620006665719C959D7963676A9699998C7C8291
:103630007E807F7461FA08000080808080808080B6
:10364000808080808080808080808080808080807A
:10365000808080807F7F7F7F7F807F807F807F8072
:10366000807F807F807F80807F807F80807F807F61
:103670007F7F80807F7F807F7F807F7F7F7F808054
:1036800080807F7F7F807F807F7F8080807F7F8042
:10369000807F7F7F7F807F80807F80807F80807F32
:1036A000807F80807F7F7F80807F7F807F80807F22
:1036B0007F7F808080807F807F80807F80807F7F11
:1036C0008080807F7F7F7F8080807F7F7F807F7F03
:1036D000807F807F80807F808080807F8080807FEF
:1036E000808080807F7F808080807F808080807FDE
:1036F00080808080807F7F808080807F7F807F80CF
:10370000807F7E80807F7E7E7F7F7F7F80818080C4
:103710007F808080818080807F807F7D817F8180AD
:1037200082807EBABCA1ABB0BCB6C4986A827B6C06
:103730005E564F504E504F57595BA3A690A0AEB562
:10374000B9BFBAB7B3B0A1AB7F4E655F4A6D8360B6
:103750006C774C4269686198967581909BA79CA68E
:103760008A567172625C5452504C708D7A839168A3
:103770005B7C7779A59D8D989CA1A39EAA9163827D
:103780007C6A6A615D595585AA8E929DA6A4A1A7FF
:103790009FA7A39A9E978D98919B7D405D5A544C0C
:1037A0003D48484C545B565B5C90A78FA0A9ADAEDA
:1037B000B3B3A9B1AEA8B0ABA29F9C99958F8B89EA
:1037C000825B3C505244717F626977899399A5AEC0
:1037D000A9B1A9A79159677760709176677A584423
:1037E00063625D64676662636566606B6B616E7978
:1037F0007E818D8B92879FD0AFA2ADB0BAB1ADB9AB
:103800007F5A80796697A97E89884B4B6E5E6F9C44
:103810008773838F9BA6ABB48968857D64929D7501
:103820007374787C86A299585867505D8B7C6E8142
:103830008B98999EA095919F96976F476057437478
:103840007A6170798B9B99A8984A5365514A4D4E7D
:10385000484E48474E595C6577706F767878847C1F
:1038600081C1C8ABBFBB878EA68593BFA693A1A419
:10387000A8A8A6B282537068598898737D85484776
:10388000766367A89F7F8E989FA9A9A7AEABA3A2D6
:103890009C96908A87837E847F7F7D412E5247430A
:1038A0007A7C5B746A3F55756078A58C80987656F3
:1038B000757C6E95AB88889261567F6F6B9D9B7609
:1038C0008D89546A7F726B67645F5E5E6561697043
:1038D0007277787B78797F7E82898E81858487C1B3
:1038E000BDA2BAA575858F7C9DB99A90A2735A7CAA
:1038F0007B6E655B6460609EA786A6A46E7F9F82D8
:103900008EBDA1899D825E7581658DA7817E889817
:103910009A9EA49D9A9F9E9D9D91998D937A3E50CB
:10392000513A2F2E3B3D386D977A85A27F678F8B5A
:1039300076ADB38E96979699999B9F9993898F6D43
:10394000394D5742698D6666838B8A9AA8A29FACCF
:10395000A596915A5B76686055514E515552525E0C
:1039600061707F7D7F8586818B8F8E97939A959BE3
:10397000CFC4ABB5B5B5B5AAA89E8E8F8384644875
:103980006262524C4A56554E88967E929FA49FA5DD
:10399000A7A6A6A39BA188576874586C8E726882EC
:1039A0005E4C6C70656264636068969A7F959669F8
:1039B000758E8376746C685F7CA58E919AA2A5A99A
:1039C000AFA9AEA8A09C9991948B8D804A4D5E4C76
:1039D000587F756779644963706083987D848F959B
:1039E00096999D9B9B9C939A8D575C6E51608E7CA3
:1039F0006A7D674665756790AA868695685A747170
:103A00006E757869696A615C686984B5AFA6BAA6A3
:103A10007F929F8B7F7F796F6E91A68F97AB857713
:103A2000919383726F66616568686A6164696A759B
:103A30007091B49C95A1A4ADAAA4A5715D6B655CC1
:103A40004B4D5C56639B928496A6AFAAB6B7B2A9BB
:103A50009E98966F59726C5F4F4B4D4A4D595D5C05
:103A600065676C71787690B6A49AB0997C969B86BF
:103A7000A3B194939595989F999AA09793919185C6
:103A8000827F856C45566051678774697783898C1E
:103A900092946C5B756B678C8D7679828890909A26
:103AA000885C6870665D5B595B5678978183919DF1
:103AB000A4A2A9A67A6B80756F93937381795366DC
:103AC00076706A6260616666686B6D6C7071797A37
:103AD00076A8B4A0ABB2B5B7BAB5B3AEA69C9E8378
:103AE000586169566B816D6B747E84878D908C8B69
:103AF0008E878684857D807A535A645B53535854ED
:103B00005756575B61666D72767D7CA5B3A2AAB0ED
:103B1000B4B0B3ADAAA99D97938E8A8481807B7A35
:103B20007E78777B79797C7C7B7E807E80848482C2
:103B3000878981817C81714B5760595553555A5BF8
:103B40005C606064676C71767C7A84878A8892BFD7
:103B5000B9A7B2BBB8B2B2AFAA9F9A948C898C872E
:103B6000878E6B5F7670678589747C868C90989D54
:103B7000A1A4A8A6A5A7A29E9E988B87817979511A
:103B80003E544E484C5251565A59616E687BA59826
:103B90008BA297798891778EA78E8D92959796981C
:103BA0009696958B89875F6170665E5B5B605668F1
:103BB000948784909BA4A1A0AB8B71867E7069646E
:103BC000655A618A8A79918F6F7B88807976747063
:103BD0007170726D71767272787E7D81808681845B
:103BE000B1AE96A7A27F89978B807B7B74716D6D38
:103BF0006F6F72737476777A7C7D7E818283848422
:103C00008585868686878686878686868585858558
:103C1000848484848484838282828282818181817B
:103C2000828282828383838383838383828282826C
:103C30008282828282828282828282838282828263
:103C40008282828181828181808182808182818160
:103C5000828381828383838383818182848482823D
:103C6000838484837E7F8485807F7F848280827446
:103C7000A98F5E83817B7B787F7284C0B29EACB952
:103C8000BEB8B4BD92647B76597F97736F79868E88
:103C90008793965C576D62584A4B49414B564C5C32
:103CA0005D7FAE9F9DA88F6C8292879FAF89859123
:103CB00065607C6D6C9C936E887C516777666559F6
:103CC00056605680A68D8EA37D6D8E827E70666C4A
:103CD000605B66626C6B7BB7A79AACACB5B5B2B7EC
:103CE000AFAAA293976347635B5041404A4649534A
:103CF0004F545369A29A90AFBEBFC3C6C19270839E
:103D00007757808E6E777D839186878A4C4667537E
:103D10005B8D837089734C6D7C6289A887849D76E6
:103D2000577F78649AA77E869593949DA79E9CA3BF
:103D3000979E83526367574B47413F464E4F505CB7
:103D40005E97B08EA7B47C7C9988807D7173617A10
:103D5000AC968E9DA5A6AEABB085637F74645856B5
:103D6000544B4A52525B5B6AA6A790ABA5758A9AE0
:103D7000888079726A6A6A66647061A1A750728CE1
:103D8000817A7E7E787A7879797C78797B7B7C7D84
:103D90007C7A80817F837F7F817F82848584838416
:103DA00085848584848583848483838684838482D4
:103DB00083858485848486858383868682858583BE
:103DC00083838584838485838384848382858382BB
:103DD00082828484848283858483838382828282B4
:103DE00082818282818383838081838283828182B4
:103DF00082828282828283828182818283818180A7
:103E000082818181818181828181818181808181A1
:103E10008181808181818181818181808181808096
:103E2000818181818081808080808080808080808D
:103E30008080808080808080808080808080808082
:103E40008080808080808080808080808080808072
:103E50008080808080808080808080808080808062
:103E60008080808080808080808080808080808052
:103E70008080808080808080808080808080808042
:103E80008080808080808080807F7F7F7F7F7F7F39
:103E90007F7F7F7F7F7F7F7F7F7F7F7F7F7F7F7F32
:103EA0007F7F7F7F7F7F7F7F7F7F7F7F7F7F7F7F22
:103EB0007F7F7F7F7F7F7F7F7F7F7F7F7F7F7F7F12
:103EC0007F7F7F7F7F7F7F7F7F7F7F7F7F7F7F7F02
:103ED0007F7F7F7F7F7F7F7F7F7F7F7F7F7F7F7FF2
:103EE0007F7F7F7F7F7F7F7F7F7F7F7F7F7F7F7FE2
:103EF0007F7F7F7F7F7F7F7F7F7F7F7F7F7F7F7FD2
:103F00007F7F7F7F7F7F7F7F7F7F7F7F7F7F7F7FC1
:103F10007F7F7F7F7F7F7F7F7F7F7F7F7F7F7F7FB1
:103F20007F7F7F7F7F7F7F7F7F7F7F7F7F7F7F7FA1
:103F30007F7F7F4C49535450000000494E464F4903
:103F40005052440A000000617461726932363030A8
:103F500000494152540E00000076696E7461676535
:103F600020736F756E640049474E52060000004F83
:103F70007468657200494E414D0E000000736F6E0B
:103F8000732076696E7461676573004449535012FB
:103F900000000001000000736F6E732076696E747C
:103FA0006167657300626578745E0300000000005D
:103FB0000000000000000000000000000000000001
:103FC00000000000000000000000000000000000F1
:103FD00000000000000000000000000000000000E1
:103FE00000000000000000000000000000000000D1
:103FF00000000000000000000000000000000000C1
:1040000000000000000000000000000000000000B0
:1040100000000000000000000000000000000000A0
:104020000000000000000000000000000000000090
:104030000000000000000000000000000000000080
:104040000000000000000000000000000000000070
:104050000000000000000000000000000000000060
:104060000000000000000000000000000000000050
:104070000000000000000000000000000000000040
:104080000000000000000000000000000000000030
:104090000000000000000000000000000000000020
:1040A0000000000000000000000000000000000010
:1040B0000000000000000000000000000000000000
:1040C00000000000000000000000000000000000F0
:1040D00000000000000000000000000000000000E0
:1040E00000000000000000000000000000000000D0
:1040F00000000000000000000000000000000000C0
:1041000000000000000000010000000000000000AE
:10411000000000000000000000000000000000009F
:10412000000000000000000000000000000000008F
:10413000000000000000000000000000000000007F
:10414000000000000000000000000000000000006F
:10415000000000000000000000000000000000005F
:10416000000000000000000000000000000000004F
:10417000000000000000000000000000000000003F
:10418000000000000000000000000000000000002F
:10419000000000000000000000000000000000001F
:1041A000000000000000000000000000000000000F
:1041B00000000000000000000000000000000000FF
:1041C00000000000000000000000000000000000EF
:1041D00000000000000000000000000000000000DF
:1041E00000000000000000000000000000000000CF
:1041F00000000000000000000000000000000000BF
:1042000000000000000000413D4D6963726F736F54
:1042100066742050434D20466F726D617420463D98
:10422000343431303020573D3136204D3D73746584
:1042300072656F0D0A413D4D6963726F736F6674ED
:104240002050434D20466F726D617420463D3434DA
:1042500031303020573D3136204D3D7374657265E5
:104260006F0D0A413D4D6963726F736F6674205024
:10427000434D20466F726D617420463D34343130B9
:104280003020573D3136204D3D73746572656F0D9A
:104290000A413D4D6963726F736F66742050434DE0
:1042A00020466F726D617420463D343431303020C9
:1042B000573D3136204D3D73746572656F0D0A416F
:1042C0003D4D6963726F736F66742050434D204695
:1042D0006F726D617420463D343431303020573D6B
:1042E0003136204D3D73746572656F0D0A413D4D49
:1042F0006963726F736F66742050434D20466F720E
:104300006D617420463D3434313020636172740035
:1043100008000000000000736F6E732076696E74F1
:1043200061676573000000000000000000000000ED
:10433000000000000000000000000000000000007D
:10434000000000000000000000000000000000006D
:104350000000000000000076696E746167652073DC
:104360006F756E6400000000000000000000000097
:10437000000000000000000000000000000000003D
:10438000000000000000000000000000000000002D
:10439000000000000000000000000000000000001D
:1043A000000000000000000000000000000000000D
:1043B00000000000000000000000000000000000FD
:1043C00000000000000000000000000000000000ED
:1043D00000000000000000000000000000000000DD
:1043E00011241FBECFEFD0E1DEBFCDBF12E0A0E0B1
:1043F000B1E0EAE7F2E600E00BBF02C007900D92E1
:10440000A03AB107D9F712E0A0EAB2E001C01D92CC
:10441000A93DB107E1F70E9463270C943B310C944E
:104420000000E2E2F0E0808180638083EFE4F0E06E
:1044300080818C7F8083EEE4F0E0808188608083DF
:1044400080818F7E80838081816080838081897F6D
:10445000808380ED97E09BBD8ABDE7E5F0E0808139
:1044600080618083EBE8F0E08081816080838081DF
:104470008D7F8083AAE8B0E08C9188608C938C91CA
:104480008F7E8C9380818F7E808380818062808309
:1044900080818C6080838C9181608C938C91897FEA
:1044A0008C931092850010928400109283001092D9
:1044B00082001092D7021092D6020895E7E5F0E04C
:1044C00080818F7E8083EEE4F0E080818E7F808328
:1044D000EAE8F0E080818E7F8083E3E2F0E0808193
:1044E0008F7E808380818F7D80831092D70210928F
:1044F000D60208951F920F920FB60F920BB60F922D
:1045000011242F933F934F935F936F937F938F93D8
:104510009F93AF93BF93EF93FF938091A6029091E7
:10452000A7028130910519F424E835E305C002970C
:1045300009F06EC02CEA3DE08091D6029091D7023E
:104540008217930768F08091C3029091C402892B6F
:1045500029F01092D7021092D60202C00E945E2269
:104560008091A6029091A70281309105B9F48091C3
:10457000D6029091D7022CE830E0F901E80FF91F3C
:10458000E491E09384008091D6029091D702F901E2
:10459000E80FF91FE491E09382001EC00297B9F47E
:1045A0008091D6029091D70223E336E3F901E80F18
:1045B000F91FE491E09384008091D6029091D70294
:1045C000F901E80FF91FE491E093820005C0109211
:1045D00084008FEF809382008091D6029091D70261
:1045E00001969093D7028093D602FF91EF91BF91ED
:1045F000AF919F918F917F916F915F914F913F917B
:104600002F910F900BBE0F900FBE0F901F9018951B
:104610008091D6029091D70296CF0E945E2281E0CF
:1046200090E09093C4028093C3029093A70280937A
:10463000A6020E94112208950E945E221092C402D6
:104640001092C30282E090E09093A7028093A602AA
:104650000E9411220895C89904C081E08093D80275
:1046600005C0CC9903C082E08093D802C9991DC0CF
:104670008091A2029091A302A091A402B091A50200
:1046800089372CEE92072FEFA2072FEFB2070CF419
:1046900050C00A97A109B1098093A2029093A30286
:1046A000A093A402B093A50244C0CB991CC08091F2
:1046B000A2029091A302A091A402B091A502883811
:1046C00023E1920720E0A20720E0B20794F50A96C2
:1046D000A11DB11D8093A2029093A302A093A402F6
:1046E000B093A50226C08091A2029091A302A0914E
:1046F000A402B091A502181619061A061B0664F446
:104700000197A109B1098093A2029093A302A093FB
:10471000A402B093A5020DC0BB235CF40196A11DB9
:10472000B11D8093A2029093A302A093A402B09320
:10473000A502CA9907C081E090E09093A1028093FE
:10474000A00208958091A0029091A102892B51F0BE
:1047500081E090E09093A9028093A8021092A102B8
:104760001092A00208951F920F920FB60F920BB6EF
:104770000F9211242F933F934F935F936F937F93E7
:104780008F939F93AF93BF93EF93FF930E942B233D
:10479000FF91EF91BF91AF919F918F917F916F9119
:1047A0005F914F913F912F910F900BBE0F900FBED5
:1047B0000F901F9018952F923F924F925F926F9299
:1047C0007F928F929F92AF92BF92CF92DF92EF92A1
:1047D000FF920F931F93DF93CF9300D00F92CDB72B
:1047E000DEB76091AA027091AB028091AC02909109
:1047F000AD0228EE33E040E050E00E94F92F122F86
:10480000032FF42EE52E622F732F842F952F2AE08D
:1048100030E040E050E00E94F92F6A83612F702F52
:104820008F2D9E2D2AE030E040E050E00E94F92FCD
:10483000CA01B9012AE030E040E050E00E94F92FBF
:104840006983662477240F2EF2EB2F2EF2E03F2EA1
:10485000F02D0F2EF5EC4F2EF2E05F2EF02D80E2C2
:104860008B8343010894811C911C6401E1E0F0E01A
:10487000EC0FFD1FE60DF71D8081805DF101808347
:104880008091D80290E088159905D9F48091B00202
:104890009091B102892B29F084E0E1ECF2E0808371
:1048A00048C08091A8029091A902892B29F082E04A
:1048B000E1ECF2E080833DC081E0E1ECF2E0808356
:1048C00038C080E2E1ECF2E0808333C0C7016FE0E2
:1048D00070E00E94E62F9C01F201E20FF31F80813D
:1048E00090E08C219D21892B11F083E006C020FFF0
:1048F00002C08B8102C0F5018081F8018083089499
:10490000E11CF11C0150104002151305F9F6E2EC10
:10491000F2E0108280E090E0B3010E94282882EB50
:1049200092E00E946328F2E08F16910489F034012E
:1049300098CFE090D402F090D50200EC12E00F2E58
:10494000FCE5AF2EF1E0BF2EF02DA60CB71CBECFBC
:104950000F900F900F90CF91DF911F910F91FF90CB
:10496000EF90DF90CF90BF90AF909F908F907F900F
:104970006F905F904F903F902F900895DF93CF936B
:10498000CDB7DEB7A2970FB6F894DEBF0FBECDBF8E
:10499000DE011196E0E0F1E081E101900D9281509D
:1049A000E1F7DE015296E1E1F1E081E101900D9243
:1049B0008150E1F7CE0101960E94632880E090E0EB
:1049C00061E070E00E942828CE0142960E94632890
:1049D000A2960FB6F894DEBF0FBECDBFCF91DF9188
:1049E0000895AF92BF92CF92DF92EF92FF920F9312
:1049F0001F93DF93CF93CDB7DEB76C970FB6F894C4
:104A0000DEBF0FBECDBFDE011196E2E2F1E08EE027
:104A100001900D928150E1F7DE011F96E0E3F1E095
:104A20008EE001900D928150E1F784E090E00E94C9
:104A3000EC30372F482F592F862F932FA42FB52FC7
:104A40005C016D014091AA025091AB026091AC02F1
:104A50007091AD02A416B506C606D70634F484E0FC
:104A600090E00E94F23085E08D876091AA027091FB
:104A7000AB028091AC029091AD0228EE33E040E0B1
:104A800050E00E94F92F122F032FF42EE52EC601BD
:104A9000B50128EE33E040E050E00E94F92FD22E1D
:104AA000C32EB42EA52E612F702F8F2D9E2D2AE0A0
:104AB00030E040E050E00E94F92F605D6B87612F8D
:104AC000702F8F2D9E2D2AE030E040E050E00E94B4
:104AD000F92F122F032FF42EE52E622F732F842F20
:104AE000952F2AE030E040E050E00E94F92F605D11
:104AF0006A87612F702F8F2D9E2D2AE030E040E0D5
:104B000050E00E94F92FCA01B9012AE030E040E0EC
:104B100050E00E94F92F605D69876D2D7C2D8B2DF3
:104B20009A2D2AE030E040E050E00E94F92F605DCD
:104B30006B8F6D2D7C2D8B2D9A2D2AE030E040E07F
:104B400050E00E94F92F122F032FF42EE52E622F32
:104B5000732F842F952F2AE030E040E050E00E9430
:104B6000F92F605D6A8F612F702F8F2D9E2D2AE0A7
:104B700030E040E050E00E94F92FCA01B9012AE07C
:104B800030E040E050E00E94F92F605D698F809135
:104B9000D4029091D50201966FE070E00E94E62F5A
:104BA0009093D5028093D4020E94DB2381E090E0B1
:104BB00060E070E00E942828CE0101960E946328E0
:104BC00081E090E061E070E00E942828CE010F961D
:104BD0000E9463286C960FB6F894DEBF0FBECDBF5F
:104BE000CF91DF911F910F91FF90EF90DF90CF90C9
:104BF000BF90AF900895AF92BF92CF92DF92EF92A5
:104C0000FF920F931F93CF93DF9305EC12E0CC2418
:104C1000DD24AA24BB24A3940F2EF3EDEF2EF2E0A3
:104C2000FF2EF02D8091A8029091A902892BE1F42A
:104C30008091D4029091D502F801E80FF91FE0812C
:104C40008091D802E81721F4C5012A2D892F08C0C8
:104C5000C6012C2D892FE33019F4C5012A2D892F87
:104C60002093B0028093B1028091B0029091B10282
:104C7000892B09F08AC02091D4023091D5022115E8
:104C8000310521F4F701808190E00BC0C901019743
:104C90006FE070E00E94E62FF801E80FF91F8081B5
:104CA00090E0F801E20FF31F1082892B91F48FE05E
:104CB00090E00E94FB289C012F5F3F4F243031057C
:104CC00044F48091D4029091D502F801E80FF91FC5
:104CD00020838091D4029091D50201966FE070E01C
:104CE0000E94E62F9093D5028093D4020E94DB238A
:104CF0008091A8029091A902009749F0019664E082
:104D000070E00E94E62F9093A9028093A802609120
:104D1000A2027091A3028091A4029091A5022AE0C0
:104D200030E040E050E00E94F92F8091AE02909177
:104D3000AF02EC01C20FD31FCE010E9482288091E6
:104D4000AE029091AF02873991052CF001979093B4
:104D5000AF028093AE029E01442737FD4095542F49
:104D60008091AA029091AB02A091AC02B091AD02E9
:104D7000820F931FA41FB51F8093AA029093AB02CA
:104D8000A093AC02B093AD024DCFDF91CF911F91B4
:104D90000F91FF90EF90DF90CF90BF90AF9008956C
:104DA00082E390E00E9482288091A8029091A9025B
:104DB000892BB1F31092A9021092A802089584B52C
:104DC00090E00E94E13081E08093D80288E592E093
:104DD0009093AF028093AE02E5ECF2E084ED92E0B6
:104DE0001192E817F907E1F71092C2021092A90296
:104DF0001092A8021092B1021092B0021092A20278
:104E00001092A3021092A4021092A5021092D50251
:104E10001092D4021092AA021092AB021092AC022D
:104E20001092AD0281E090E060E070E00E94CA273D
:104E300008950F931F93CF93DF9308E611E0C0E02E
:104E4000D0E02196CE01B8010E943D28085F1F4F97
:104E5000C530D105B1F78CE090E060E070E00E94D1
:104E6000CA2781E090E060E070E00E94CA27DF91ED
:104E7000CF911F910F910895F894E5E4F0E08081BF
:104E80008F78808380818860808380818560808343
:104E900080818D7F80838EE383BDE7E5F0E08081B4
:104EA00080688083EAE3F0E080818E7F8083808168
:104EB0008B7F808380818F7E8083808180648083EC
:104EC0000E94E52708950E943C2778940E941927A4
:104ED0000E94BE240E94D0260E94DF260E940D233D
:104EE0000E94FB250E941C230E94F124F3CFE5E3DE
:104EF000F0E080818460808380E991E00197F1F7A0
:104F000083B390819B7F908382958F7090E008950A
:104F10009FE094BB826085BB0E9477270895EF9243
:104F2000FF920F931F937C010E9488278C010295AA
:104F30001295107F1027007F1027C7010E94882735
:104F4000082B192B802F912F1F910F91FF90EF901D
:104F500008952FEF24BB82959295907F9827807FAC
:104F60009827682B65BB0E947727089580E090E022
:104F70000E948F278823D4F308950F931F930E94D4
:104F80008F27182F092F0E94B627812F902F1F914E
:104F90000F910895EF92FF920F931F938C017B0165
:104FA00095958795959587959595879595958795E9
:104FB0000E94A927C801B7010E94A9270E94B6270D
:104FC0001F910F91FF90EF9008950F931F9383E02F
:104FD00090E060E070E00E94A92700E21EE4C801B2
:104FE0000197F1F783E090E060E070E00E94A9276C
:104FF000C8010197F1F783E090E060E070E00E9463
:10500000A927C8010197F1F782E090E060E070E025
:105010000E94A927C8010197F1F78CE290E060E0B7
:1050200070E00E94CA2788E090E060E070E00E9493
:10503000CA2781E090E060E070E00E94CA2786E025
:1050400090E060E070E00E94CA271F910F910895E0
:10505000AC01862F972F009711F081E090E0FC01C2
:10506000EE56FE4F80819A01280F311DC9018068DC
:1050700060E070E00E94CA2708950F931F93CF93BA
:10508000DF938B0187709070880F991F880F991F8D
:10509000880F991F806460E070E00E94CA27C0E01A
:1050A000D0E0F801EC0FFD1F808190E061E070E03E
:1050B0000E94CA272196C830D10599F7DF91CF9178
:1050C0001F910F9108950F931F93CF93DF938C013E
:1050D000A82FB12FFD0101900020E9F73197EF01D2
:1050E000CA1BDB0B51F0F80181918F0190E061E068
:1050F00070E00E94CA272197B1F7DF91CF911F91ED
:105100000F910895AF92BF92CF92DF92EF92FF92EC
:105110000F931F938C0164E670E00E94E62F862FA8
:10512000972FDC011A161B068CF4BD01E8EEF3E0A4
:1051300040E951E09F01CA010197F1F72150304049
:10514000D1F76150704016161706A4F38CE99FEF53
:10515000A89FB001A99F700DB89F700D1124600F1A
:10516000711F882777FD8095982F0E943F2D5B0146
:105170006C0120E030E04AE755E40E94092B7B01F6
:105180008C0120E030E040E85FE30E940F2D88238F
:105190001CF461E070E023C0C801B70120E03FEFDC
:1051A0004FE757E40E94AF2C1816ACF4C601B501C6
:1051B00020E030E040E251E40E94092B0E943329B4
:1051C000CB01672B79F020E931E0F9013197F1F754
:1051D0000197D9F707C0C801B7010E943329CB0155
:1051E0000197F1F71F910F91FF90EF90DF90CF9013
:1051F000BF90AF900895AF92BF92CF92DF92EF929F
:10520000FF920F931F937C010E94DC30AA2797FD29
:10521000A095BA2FBC01CD010E943F2D20E03EEFAA
:105220004FEF56E40E94032C5B016C010027F7FC52
:105230000095102FC801B7010E943F2D9B01AC01C2
:10524000C601B5010E94092B0E949D2D9B01AC0156
:10525000862F932F1F910F91FF90EF90DF90CF90AB
:10526000BF90AF900895EF92FF920F931F937B0131
:105270008C0120E030E040E05FE40E94DF2C8823D6
:105280008CF0C801B70120E030E040E05FE40E940C
:10529000AB2A0E949D2D9B01AC0120503040404024
:1052A000504806C0C801B7010E949D2D9B01AC016A
:1052B000B901CA011F910F91FF90EF900895A0E0EE
:1052C000B0E0E5E6F9E20C944A30DC012B01FA018A
:1052D0009C91923008F439C1EB018881823008F446
:1052E00033C1943069F4843009F02FC111969C9138
:1052F00011978981981709F428C1A4E9B1E025C163
:10530000843009F421C18230A9F4923009F01DC122
:105310009A01AD0188E0EA010990AE01E901099224
:105320009E018150C1F7E201898111969C918923E8
:10533000818308C1923009F407C112962D903C90E8
:105340001397EB018A819B811496AD90BD90CD900F
:10535000DC901797EC80FD800E811F819101281B46
:10536000390BB90137FF04C066277727621B730B1F
:10537000603271050CF061C0121613066CF537012E
:105380004801062E04C096948794779467940A94F3
:10539000D2F721E030E040E050E004C0220F331F9C
:1053A000441F551F6A95D2F721503040404050406D
:1053B0002E213F214023512321153105410551055F
:1053C00021F021E030E040E050E079018A01E62858
:1053D000F728082919293CC0232BD1F1260E371EA6
:1053E00035014601062E04C09694879477946794FD
:1053F0000A94D2F721E030E040E050E004C0220FF0
:10540000331F441F551F6A95D2F72150304040404A
:1054100050402A213B214C215D21211531054105B8
:10542000510521F021E030E040E050E059016A01EF
:10543000A628B728C828D9280BC0821593052CF0B8
:105440001C01AA24BB24650103C0EE24FF248701AC
:1054500011969C91D20111968C91981709F445C030
:10546000992339F0A80197012A193B094C095D09D4
:1054700006C0A60195012E193F09400B510B57FD9F
:1054800008C0118233822282248335834683578366
:105490001DC081E081833382228288279927DC0125
:1054A000821B930BA40BB50B84839583A683B783D0
:1054B0000DC0220F331F441F551F2483358346839D
:1054C00057838281938101979383828324813581DD
:1054D00046815781DA01C9010197A109B1098F5F9E
:1054E0009F4FAF4FBF4328F30BC09183338222827B
:1054F000EA0CFB1C0C1D1D1DE482F582068317833C
:1055000083E08083248135814681578157FF1AC00B
:10551000C901AA2797FDA095BA2F81709070A0703D
:10552000B0705695479537952795822B932BA42BD2
:10553000B52B84839583A683B7838281938101965B
:1055400093838283DF0101C0D201CD01CDB7DEB7E5
:10555000E2E10C946630A0E2B0E0E1EBFAE20C94F8
:10556000563069837A838B839C832D833E834F835C
:105570005887E9E0EE2EF12CEC0EFD1ECE010196CF
:10558000B7010E94152F8E010F5E1F4FCE010596A9
:10559000B8010E94152F8A8991E089278A8BC7015B
:1055A000B801AE01475E5F4F0E945F290E94402E06
:1055B000A096E6E00C947230A0E2B0E0E2EEFAE2EF
:1055C0000C94563069837A838B839C832D833E832E
:1055D0004F835887F9E0EF2EF12CEC0EFD1ECE0123
:1055E0000196B7010E94152F8E010F5E1F4FCE014D
:1055F0000596B8010E94152FC701B801AE01475E9C
:105600005F4F0E945F290E94402EA096E6E00C9416
:105610007230A0E2B0E0EFE0FBE20C944A30698324
:105620007A838B839C832D833E834F835887CE015F
:105630000196BE01675F7F4F0E94152FCE01059630
:10564000BE016F5E7F4F0E94152F9985923088F0C2
:1056500089898230C8F0943019F4823051F404C042
:10566000843029F4923081F484E991E0C6C092300C
:1056700049F420E09A858A89981321E02A87CE018F
:105680000996BBC0823049F420E09A858A89981334
:1056900021E02A8BCE014196B0C02D843E844F84F8
:1056A00058886D887E888F88988CEE24FF24870127
:1056B000AA24BB24650140E050E060E070E0E0E037
:1056C000F0E0C10181709070892BE9F0E60CF71CC5
:1056D000081D191D9A01AB012A0D3B1D4C1D5D1DB6
:1056E00080E090E0A0E0B0E0E614F70408051905BA
:1056F00020F481E090E0A0E0B0E0BA01A901480FF9
:10570000591F6A1F7B1FAA0CBB1CCC1CDD1C97FEFB
:1057100008C081E090E0A0E0B0E0A82AB92ACA2A37
:10572000DB2A3196E032F10549F0660C771C881CC3
:10573000991C5694479437942794C3CFFA85EA89E5
:105740002B893C898B859C85280F391F2E5F3F4F05
:1057500017C0CA0181709070892B61F0169507956A
:10576000F794E79480E090E0A0E0B0E8E82AF92A16
:105770000A2B1B2B76956795579547952F5F3F4FC3
:1057800077FDE7CF0CC0440F551F661F771F17FD2D
:105790004160EE0CFF1C001F111F215030404030B3
:1057A00090E0590790E0690790E4790760F32B8F48
:1057B0003C8FDB01CA018F779070A070B07080348D
:1057C0009105A105B10561F447FD0AC0E114F1049A
:1057D0000105110529F0405C5F4F6F4F7F4F407806
:1057E0001A8EFE1711F081E08A8F4D8F5E8F6F8FBA
:1057F00078A383E0898FCE0149960E94402EA0961F
:10580000E2E10C946630A8E1B0E0E9E0FCE20C943F
:10581000523069837A838B839C832D833E834F83AD
:105820005887B9E0EB2EF12CEC0EFD1ECE0101964F
:10583000B7010E94152F8E010F5E1F4FCE010596F6
:10584000B8010E94152F2985223008F47EC03989BD
:10585000323010F4B8017CC08A859A8989278A87FA
:10586000243011F0223031F4231709F06EC064E9BE
:1058700071E06EC0343039F41D861E861F86188A8A
:105880001C861B8604C0323021F484E08987B7016E
:105890005FC02B853C858B899C89281B390B3C87F5
:1058A0002B87ED84FE840F851889AD88BE88CF884C
:1058B000D88CEA14FB040C051D0540F4EE0CFF1C0B
:1058C000001F111F215030403C872B8720E030E023
:1058D00040E050E080E090E0A0E0B0E460E070E004
:1058E000EA14FB040C051D0540F0282B392B4A2B2C
:1058F0005B2BEA18FB080C091D09B695A79597952F
:105900008795EE0CFF1C001F111F6F5F7F4F6F31DB
:10591000710531F7DA01C9018F779070A070B0700E
:1059200080349105A105B10561F427FD0AC0E11499
:10593000F1040105110529F0205C3F4F4F4F5F4FE7
:1059400020782D873E874F87588BBE01675F7F4F3A
:10595000CB010E94402E6896EAE00C946E30A8E1DC
:10596000B0E0E5EBFCE20C94563069837A838B83DC
:105970009C832D833E834F83588789E0E82EF12C4A
:10598000EC0EFD1ECE010196B7010E94152F8E016F
:105990000F5E1F4FCE010596B8010E94152F898515
:1059A000823040F08989823028F0C701B8010E9416
:1059B0008D2F01C08FEF6896E6E00C947230A8E15D
:1059C000B0E0E5EEFCE20C94563069837A838B8379
:1059D0009C832D833E834F83588789E0E82EF12CEA
:1059E000EC0EFD1ECE010196B7010E94152F8E010F
:1059F0000F5E1F4FCE010596B8010E94152F8985B5
:105A0000823040F08989823028F0C701B8010E94B5
:105A10008D2F01C08FEF6896E6E00C947230A8E1FC
:105A2000B0E0E5E1FDE20C94563069837A838B8324
:105A30009C832D833E834F83588789E0E82EF12C89
:105A4000EC0EFD1ECE010196B7010E94152F8E01AE
:105A50000F5E1F4FCE010596B8010E94152F898554
:105A6000823040F08989823028F0C701B8010E9455
:105A70008D2F01C081E06896E6E00C947230A8E0BA
:105A8000B0E0E5E4FDE20C9453309B01AC0183E00F
:105A90008983DA01C9018827B7FD83959927AA2749
:105AA000BB27B82E211531054105510519F482E0B7
:105AB00089833AC08823A9F0203080E0380780E04D
:105AC000480780E8580729F460E070E080E09FEC28
:105AD00030C0EE24FF248701E21AF30A040B150BF1
