:100000000C9446000C9465000C9465000C946500FB
:100010000C9465000C9465000C9465000C946500CC
:100020000C9465000C9465000C9465000C946500BC
:100030000C9467000C9465000C9465000C946500AA
:100040000C9465000C9465000C9465000C9465009C
:100050000C9465000C9465000C9465000C9465008C
:100060000C9465000C9465000C9465000C9465007C
:100070000C9465000C9465000C9465000C9465006C
:100080000C9465000C9465000C94650011241FBE4F
:10009000CFEFD0E1DEBFCDBF11E0A0E0B1E0E8E2FC
:1000A000F4E000E00BBF02C007900D92A633B10749
:1000B000D9F711E0A6E3B1E001C01D92A834B10761
:1000C000E1F70E9418010C9412020C9400001F9298
:1000D0000F920FB60F920BB60F9211248F939F932E
:1000E000EF93FF93E3E2F0E0808190E38927808340
:1000F000FF91EF919F918F910F900BBE0F900FBECC
:100100000F901F9018950F931F93CF93DF93F89440
:10011000E2E2F0E0808180638083E3E2F0E08081CE
:100120008F7E8083808180628083EFE4F0E0808135
:100130008C7F8083AEE4B0E08C9188608C938C914E
:100140008F7E8C93E7E5F0E080818F7E80831BBCFF
:1001500083E18ABD8C9185608C93EAE3F0E0808135
:100160008E7F808380818B7F808380818F7E808360
:100170008081806480830E948A0105E011E0C0E0F4
:10018000D0E02196CE01B8010E94EC01085F1F4F1C
:10019000C630D105B1F78CE090E060E070E00E94DD
:1001A0006F0181E090E060E070E00E946F018CE3FD
:1001B00090E061E070E00E946F0180E290E061E019
:1001C00070E00E946F0181E090E061E070E00E94C9
:1001D0006F0182E090E061E070E00E946F0183E0D7
:1001E00090E061E070E00E946F0184E090E061E0E7
:1001F00070E00E946F0185E090E061E070E00E9495
:100200006F0186E090E061E070E00E946F0180E2A3
:1002100090E061E070E00E946F018EE390E061E0A9
:1002200070E00E946F01DF91CF911F910F910895AF
:100230000E9483007894FFCFE5E3F0E08081846042
:10024000808380E991E00197F1F783B390819B7FF0
:10025000908382958F7090E008959FE094BB8260B8
:1002600085BB0E941C010895EF92FF920F931F938C
:100270007C010E942D018C0102951295107F1027A0
:10028000007F1027C7010E942D01082B192B802FFA
:10029000912F1F910F91FF90EF9008952FEF24BBA6
:1002A00082959295907F9827807F9827682B65BBD1
:1002B0000E941C01089580E090E00E943401882390
:1002C000D4F308950F931F930E943401182F092F20
:1002D0000E945B01812F902F1F910F910895EF9243
:1002E000FF920F931F938C017B01959587959595B0
:1002F000879595958795959587950E944E01C8019C
:10030000B7010E944E010E945B011F910F91FF9067
:10031000EF9008950F931F9383E090E060E070E00A
:100320000E944E0100E21EE4C8010197F1F783E04C
:1003300090E060E070E00E944E01C8010197F1F783
:1003400083E090E060E070E00E944E01C8010197F8
:10035000F1F782E090E060E070E00E944E01C80199
:100360000197F1F78CE290E060E070E00E946F018D
:1003700088E090E060E070E00E946F0181E090E032
:1003800060E070E00E946F0186E090E060E070E065
:100390000E946F011F910F9108950F931F93CF93A8
:1003A000DF938C01A82FB12FFD0101900020E9F708
:1003B0003197EF01CA1BDB0B51F0F80181918F01DE
:1003C00090E061E070E00E946F012197B1F7DF914A
:1003D000CF911F910F9108950F931F93CF93DF93A8
:1003E0008B0187709070880F991F880F991F880F55
:1003F000991F806460E070E00E946F01C0E0D0E06F
:10040000F801EC0FFD1F808190E061E070E00E9438
:100410006F012196C830D10599F7DF91CF911F91D7
:080420000F910895F894FFCF3D
:100428000F00060020000E1F0A0000000000000058
:10043800000E1F0A00001E1F0A0000000000000036
:10044800001E1F0A00150E0E150000000000000017
:06045800150E0E15000058
:00000001FF
